{
  "address": "0xCaEF9Aa80bacC9FEf34f87DE00ca07e3a20Eba03",
  "abi": [
    {
      "inputs": [
        {
          "internalType": "contract IStrollResolver",
          "name": "_strollResolver",
          "type": "address"
        },
        {
          "internalType": "uint256",
          "name": "_scanLength",
          "type": "uint256"
        }
      ],
      "stateMutability": "nonpayable",
      "type": "constructor"
    },
    {
      "anonymous": false,
      "inputs": [
        {
          "indexed": true,
          "internalType": "address",
          "name": "previousOwner",
          "type": "address"
        },
        {
          "indexed": true,
          "internalType": "address",
          "name": "newOwner",
          "type": "address"
        }
      ],
      "name": "OwnershipTransferred",
      "type": "event"
    },
    {
      "anonymous": false,
      "inputs": [
        {
          "indexed": true,
          "internalType": "uint256",
          "name": "id",
          "type": "uint256"
        }
      ],
      "name": "PerformedTopUp",
      "type": "event"
    },
    {
      "anonymous": false,
      "inputs": [
        {
          "indexed": true,
          "internalType": "uint256",
          "name": "id",
          "type": "uint256"
        },
        {
          "indexed": true,
          "internalType": "address",
          "name": "user",
          "type": "address"
        },
        {
          "indexed": true,
          "internalType": "address",
          "name": "superToken",
          "type": "address"
        },
        {
          "indexed": false,
          "internalType": "address",
          "name": "liquidityToken",
          "type": "address"
        },
        {
          "indexed": false,
          "internalType": "address",
          "name": "strategy",
          "type": "address"
        },
        {
          "indexed": false,
          "internalType": "uint256",
          "name": "time",
          "type": "uint256"
        }
      ],
      "name": "TopUpCreated",
      "type": "event"
    },
    {
      "anonymous": false,
      "inputs": [
        {
          "indexed": true,
          "internalType": "uint256",
          "name": "id",
          "type": "uint256"
        },
        {
          "indexed": true,
          "internalType": "address",
          "name": "user",
          "type": "address"
        },
        {
          "indexed": true,
          "internalType": "address",
          "name": "superToken",
          "type": "address"
        },
        {
          "indexed": false,
          "internalType": "address",
          "name": "liquidityToken",
          "type": "address"
        },
        {
          "indexed": false,
          "internalType": "address",
          "name": "strategy",
          "type": "address"
        },
        {
          "indexed": false,
          "internalType": "uint256",
          "name": "time",
          "type": "uint256"
        }
      ],
      "name": "TopUpDeleted",
      "type": "event"
    },
    {
      "inputs": [
        {
          "internalType": "uint256",
          "name": "_index",
          "type": "uint256"
        }
      ],
      "name": "checkTopUp",
      "outputs": [
        {
          "internalType": "bool",
          "name": "",
          "type": "bool"
        }
      ],
      "stateMutability": "view",
      "type": "function"
    },
    {
      "inputs": [
        {
          "internalType": "bytes",
          "name": "checkData",
          "type": "bytes"
        }
      ],
      "name": "checkUpkeep",
      "outputs": [
        {
          "internalType": "bool",
          "name": "upkeepNeeded",
          "type": "bool"
        },
        {
          "internalType": "bytes",
          "name": "performData",
          "type": "bytes"
        }
      ],
      "stateMutability": "view",
      "type": "function"
    },
    {
      "inputs": [
        {
          "internalType": "address",
          "name": "_superToken",
          "type": "address"
        },
        {
          "internalType": "address",
          "name": "_strategy",
          "type": "address"
        },
        {
          "internalType": "address",
          "name": "_liquidityToken",
          "type": "address"
        },
        {
          "internalType": "uint256",
          "name": "_time",
          "type": "uint256"
        }
      ],
      "name": "createTopUp",
      "outputs": [],
      "stateMutability": "nonpayable",
      "type": "function"
    },
    {
      "inputs": [
        {
          "internalType": "uint256[]",
          "name": "_indices",
          "type": "uint256[]"
        }
      ],
      "name": "deleteBatch",
      "outputs": [],
      "stateMutability": "nonpayable",
      "type": "function"
    },
    {
      "inputs": [
        {
          "internalType": "address",
          "name": "_user",
          "type": "address"
        },
        {
          "internalType": "address",
          "name": "_superToken",
          "type": "address"
        }
      ],
      "name": "deleteTopUp",
      "outputs": [],
      "stateMutability": "nonpayable",
      "type": "function"
    },
    {
      "inputs": [
        {
          "internalType": "uint256",
          "name": "_index",
          "type": "uint256"
        }
      ],
      "name": "deleteTopUp",
      "outputs": [],
      "stateMutability": "nonpayable",
      "type": "function"
    },
    {
      "inputs": [
        {
          "internalType": "address",
          "name": "_user",
          "type": "address"
        },
        {
          "internalType": "address",
          "name": "_superToken",
          "type": "address"
        }
      ],
      "name": "getTopUp",
      "outputs": [
        {
          "internalType": "address",
          "name": "",
          "type": "address"
        },
        {
          "internalType": "contract ISuperToken",
          "name": "",
          "type": "address"
        },
        {
          "components": [
            {
              "internalType": "contract IStrategy",
              "name": "strategyAddress",
              "type": "address"
            },
            {
              "internalType": "address",
              "name": "token",
              "type": "address"
            }
          ],
          "internalType": "struct Registry.Strategy",
          "name": "",
          "type": "tuple"
        },
        {
          "internalType": "uint256",
          "name": "",
          "type": "uint256"
        }
      ],
      "stateMutability": "view",
      "type": "function"
    },
    {
      "inputs": [
        {
          "internalType": "uint256",
          "name": "_index",
          "type": "uint256"
        }
      ],
      "name": "getTopUpByIndex",
      "outputs": [
        {
          "internalType": "address",
          "name": "",
          "type": "address"
        },
        {
          "internalType": "contract ISuperToken",
          "name": "",
          "type": "address"
        },
        {
          "components": [
            {
              "internalType": "contract IStrategy",
              "name": "strategyAddress",
              "type": "address"
            },
            {
              "internalType": "address",
              "name": "token",
              "type": "address"
            }
          ],
          "internalType": "struct Registry.Strategy",
          "name": "",
          "type": "tuple"
        },
        {
          "internalType": "uint256",
          "name": "",
          "type": "uint256"
        }
      ],
      "stateMutability": "view",
      "type": "function"
    },
    {
      "inputs": [
        {
          "internalType": "address",
          "name": "_user",
          "type": "address"
        },
        {
          "internalType": "address",
          "name": "_superToken",
          "type": "address"
        }
      ],
      "name": "getTopUpIndex",
      "outputs": [
        {
          "internalType": "uint256",
          "name": "",
          "type": "uint256"
        }
      ],
      "stateMutability": "view",
      "type": "function"
    },
    {
      "inputs": [],
      "name": "getTotalTopUps",
      "outputs": [
        {
          "internalType": "uint256",
          "name": "",
          "type": "uint256"
        }
      ],
      "stateMutability": "view",
      "type": "function"
    },
    {
      "inputs": [],
      "name": "owner",
      "outputs": [
        {
          "internalType": "address",
          "name": "",
          "type": "address"
        }
      ],
      "stateMutability": "view",
      "type": "function"
    },
    {
      "inputs": [
        {
          "internalType": "uint256",
          "name": "_index",
          "type": "uint256"
        }
      ],
      "name": "performTopUp",
      "outputs": [],
      "stateMutability": "nonpayable",
      "type": "function"
    },
    {
      "inputs": [
        {
          "internalType": "bytes",
          "name": "performData",
          "type": "bytes"
        }
      ],
      "name": "performUpkeep",
      "outputs": [],
      "stateMutability": "nonpayable",
      "type": "function"
    },
    {
      "inputs": [],
      "name": "renounceOwnership",
      "outputs": [],
      "stateMutability": "nonpayable",
      "type": "function"
    },
    {
      "inputs": [],
      "name": "scanLength",
      "outputs": [
        {
          "internalType": "uint256",
          "name": "",
          "type": "uint256"
        }
      ],
      "stateMutability": "view",
      "type": "function"
    },
    {
      "inputs": [
        {
          "internalType": "uint256",
          "name": "_scanLength",
          "type": "uint256"
        }
      ],
      "name": "setScanLength",
      "outputs": [],
      "stateMutability": "nonpayable",
      "type": "function"
    },
    {
      "inputs": [
        {
          "internalType": "address",
          "name": "newOwner",
          "type": "address"
        }
      ],
      "name": "transferOwnership",
      "outputs": [],
      "stateMutability": "nonpayable",
      "type": "function"
    }
  ],
  "transactionHash": "0x804e1bc2e31895b9f11e63ecbf53e65154766ad6a96515bfa1ad3a8efea368f2",
  "args": [
    "0x26ba9541d632aE68488a3aB22b866147D1bfFBCB",
    "100"
  ],
  "numDeployments": 1,
  "solcInputHash": "a68b29a61e604eec861c50fcd6f25f81",
  "bytecode": "0x60a060405234801561001057600080fd5b5060405161180f38038061180f83398101604081905261002f91610205565b610038336101b5565b6001600160601b0319606083901b16608052600481905561008c6040805160808101825260008082526020808301829052835180850185528281529081019190915290918201908152602001600081525090565b600180548082018255600091909152815160059091027fb10e2d527612073b26eecdfd717e6a320cf44b4afac2b0732d9fcbe2b7fa0cf6810180546001600160a01b039384166001600160a01b0319918216179091556020808501517fb10e2d527612073b26eecdfd717e6a320cf44b4afac2b0732d9fcbe2b7fa0cf784018054918616918416919091179055604085015180517fb10e2d527612073b26eecdfd717e6a320cf44b4afac2b0732d9fcbe2b7fa0cf88501805491871691851691909117905501517fb10e2d527612073b26eecdfd717e6a320cf44b4afac2b0732d9fcbe2b7fa0cf983018054919094169116179091556060909101517fb10e2d527612073b26eecdfd717e6a320cf44b4afac2b0732d9fcbe2b7fa0cfa909101555061023d9050565b600080546001600160a01b038381166001600160a01b0319831681178455604051919092169283917f8be0079c531659141344cd1fd0a4f28419497f9722a3daafe3b4186f6b6457e09190a35050565b60008060408385031215610217578182fd5b82516001600160a01b038116811461022d578283fd5b6020939093015192949293505050565b60805160601c6115b461025b60003960006108e401526115b46000f3fe608060405234801561001057600080fd5b506004361061010b5760003560e01c806371337ce7116100a25780638da5cb5b116100715780638da5cb5b14610247578063c36d16a914610262578063e67cc0f614610275578063f2fde38b14610288578063fbe4d9211461029b57600080fd5b806371337ce7146101f6578063715018a6146102195780637dab2e761461022157806383840cd61461023457600080fd5b80634585e33b116100de5780634585e33b146101a65780634f8dadb1146101b957806353810842146101cc5780636e04ff0d146101d557600080fd5b806303ade2051461011057806310ae7e121461016c5780631a57610614610181578063394003fe14610193575b600080fd5b61012361011e3660046112af565b6102ae565b604080516001600160a01b0395861681529385166020808601919091528351861691850191909152909101519092166060820152608081019190915260a0015b60405180910390f35b61017f61017a36600461132b565b6102f4565b005b6001545b604051908152602001610163565b61017f6101a13660046112af565b610345565b61017f6101b43660046113bb565b6103fd565b61017f6101c736600461143d565b610416565b61018560045481565b6101e86101e33660046113bb565b6106c1565b60405161016392919061146d565b61020961020436600461143d565b61075c565b6040519015158152602001610163565b61017f610a08565b61018561022f3660046112af565b610a3e565b61017f6102423660046112e1565b610a69565b6000546040516001600160a01b039091168152602001610163565b61017f61027036600461143d565b610e62565b61012361028336600461143d565b610e91565b61017f610296366004611295565b61101e565b61017f6102a936600461143d565b6110b9565b6000806102cb604080518082019091526000808252602082015290565b6000806102d88787610a3e565b90506102e381610e91565b929a91995097509095509350505050565b60005b818110156103405761032e83838381811061032257634e487b7160e01b600052603260045260246000fd5b90506020020135610416565b806103388161154d565b9150506102f7565b505050565b6001600160a01b0382166103985760405162461bcd60e51b81526020600482015260156024820152740c081059191c995cdcc81b9bdd08185b1b1bddd959605a1b60448201526064015b60405180910390fd5b6001600160a01b0381166103e65760405162461bcd60e51b81526020600482015260156024820152740c081059191c995cdcc81b9bdd08185b1b1bddd959605a1b604482015260640161038f565b60006103f28383610a3e565b905061034081610416565b600061040b8284018461143d565b9050610340816110b9565b600154811061045d5760405162461bcd60e51b8152602060048201526013602482015272496e646578206f7574206f6620626f756e647360681b604482015260640161038f565b60006001828154811061048057634e487b7160e01b600052603260045260246000fd5b600091825260209182902060408051608081018252600590930290910180546001600160a01b03908116845260018201548116848601528251808401845260028301548216815260038301548216958101959095529183019390935260049092015460608201528051909250163314806104fd5750428160600151105b61053e5760405162461bcd60e51b8152602060048201526012602482015271043616e27742064656c65746520546f7055760741b604482015260640161038f565b80516001600160a01b03908116600090815260026020908152604080832082860151909416835292905220546105a85760405162461bcd60e51b815260206004820152600f60248201526e151bdc155c081b9bdd08199bdd5b99608a1b604482015260640161038f565b80516001600160a01b03908116600090815260026020908152604080832082860151909416835292905290812081905560018054849081106105fa57634e487b7160e01b600052603260045260246000fd5b6000918252602080832060059290920290910180546001600160a01b0319166001600160a01b039485161790556003805460018101825592527fc2575a0e9e593c00f959f8c92f12db2869c3395a3b0502d05e2516446f71f85b90910184905582810151835160408086015180850151905160608089015184519389168452918816968301969096529181019190915291841693169185917f127b034ee57fd43d9ec93db5366ad2c53332e34153f7b6ebc9f415e576cd25c5910160405180910390a45050565b60006060600060045485858101906106d9919061143d565b6106e39190611517565b90506000600454826106f591906114ff565b9050815b818110156107515761070a8161075c565b1561073f5760018160405160200161072491815260200190565b60405160208183030381529060405294509450505050610755565b806107498161154d565b9150506106f9565b5050505b9250929050565b600154600090821061077057506000919050565b60006001838154811061079357634e487b7160e01b600052603260045260246000fd5b600091825260209182902060408051608081018252600590930290910180546001600160a01b0390811684526001820154811684860152825180840184526002830154821681526003830154821695810195909552918301939093526004909201546060820152805190925016158061080f5750428160600151105b806108a557506040818101516020810151835191519251636eb1769f60e11b81526001600160a01b0392831660048201529282166024840152169063dd62ed3e9060440160206040518083038186803b15801561086b57600080fd5b505afa15801561087f573d6000803e3d6000fd5b505050506040513d601f19601f820116820180604052508101906108a39190611455565b155b156108b35750600092915050565b80602001516001600160a01b031673Dd9B184686CA407B31DBac633528F4C5bC5362d963d650823e909183600001517f00000000000000000000000000000000000000000000000000000000000000006001600160a01b0316639731d9f66040518163ffffffff1660e01b815260040160206040518083038186803b15801561093b57600080fd5b505afa15801561094f573d6000803e3d6000fd5b505050506040513d601f19601f820116820180604052508101906109739190611416565b6040516001600160e01b031960e086901b1681526001600160a01b0393841660048201529290911660248301526001600160801b0316604482015260640160206040518083038186803b1580156109c957600080fd5b505af41580156109dd573d6000803e3d6000fd5b505050506040513d601f19601f82011682018060405250810190610a01919061139b565b9392505050565b6000546001600160a01b03163314610a325760405162461bcd60e51b815260040161038f906114ca565b610a3c6000611229565b565b6001600160a01b03918216600090815260026020908152604080832093909416825291909152205490565b6001600160a01b03841615801590610a8957506001600160a01b03831615155b8015610a9d57506001600160a01b03821615155b610ad85760405162461bcd60e51b815260206004820152600c60248201526b4e756c6c204164647265737360a01b604482015260640161038f565b428111610b165760405162461bcd60e51b815260206004820152600c60248201526b496e76616c69642074696d6560a01b604482015260640161038f565b6000610b223386610a3e565b90508015610b695760405162461bcd60e51b8152602060048201526014602482015273546f70557020616c72656164792065786973747360601b604482015260640161038f565b604080516080810182523381526001600160a01b0387811660208084019190915283518085018552888316815291871690820152918101919091526060810183905260035415610cc75760038054610bc390600190611536565b81548110610be157634e487b7160e01b600052603260045260246000fd5b906000526020600020015491508060018381548110610c1057634e487b7160e01b600052603260045260246000fd5b600091825260209182902083516005929092020180546001600160a01b03199081166001600160a01b0393841617825584840151600183018054831691851691909117905560408501518051600284018054841691861691909117905590930151600380830180549095169190931617909255606090920151600490910155805480610cac57634e487b7160e01b600052603160045260246000fd5b60019003818190600052602060002001600090559055610de9565b6001805480820182556000919091528151600582027fb10e2d527612073b26eecdfd717e6a320cf44b4afac2b0732d9fcbe2b7fa0cf6810180546001600160a01b039384166001600160a01b0319918216179091556020808601517fb10e2d527612073b26eecdfd717e6a320cf44b4afac2b0732d9fcbe2b7fa0cf784018054918616918416919091179055604086015180517fb10e2d527612073b26eecdfd717e6a320cf44b4afac2b0732d9fcbe2b7fa0cf88501805491871691851691909117905501517fb10e2d527612073b26eecdfd717e6a320cf44b4afac2b0732d9fcbe2b7fa0cf9830180549190941691161790915560608301517fb10e2d527612073b26eecdfd717e6a320cf44b4afac2b0732d9fcbe2b7fa0cfa9091015591505b3360008181526002602090815260408083206001600160a01b038b81168086529184529382902087905581518985168152938a16928401929092528201869052919084907f65606375fe43885344ec4a79b45dc99d764c89843fdca9b4d3a84668701422209060600160405180910390a4505050505050565b6000546001600160a01b03163314610e8c5760405162461bcd60e51b815260040161038f906114ca565b600455565b600080610eae604080518082019091526000808252602082015290565b6001546000908510610ef85760405162461bcd60e51b8152602060048201526013602482015272496e646578206f7574206f6620626f756e647360681b604482015260640161038f565b60018581548110610f1957634e487b7160e01b600052603260045260246000fd5b6000918252602090912060059091020154600180546001600160a01b039092169187908110610f5857634e487b7160e01b600052603260045260246000fd5b906000526020600020906005020160010160009054906101000a90046001600160a01b031660018781548110610f9e57634e487b7160e01b600052603260045260246000fd5b906000526020600020906005020160020160018881548110610fd057634e487b7160e01b600052603260045260246000fd5b600091825260209182902060059190910201600401546040805180820190915283546001600160a01b0390811682526001909401549093169183019190915292989197509550909350915050565b6000546001600160a01b031633146110485760405162461bcd60e51b815260040161038f906114ca565b6001600160a01b0381166110ad5760405162461bcd60e51b815260206004820152602660248201527f4f776e61626c653a206e6577206f776e657220697320746865207a65726f206160448201526564647265737360d01b606482015260840161038f565b6110b681611229565b50565b6110c28161075c565b6111035760405162461bcd60e51b8152602060048201526012602482015271151bdc155c0818da1958dac819985a5b195960721b604482015260640161038f565b60006001828154811061112657634e487b7160e01b600052603260045260246000fd5b60009182526020918290206040805160808101825260059390930290910180546001600160a01b0390811684526001820154811684860190815283518085018552600284015483168152600384015483169681019687528585018190526004938401546060870152518551965191519451633a8c756b60e11b8152968316938701939093528116602486015291821660448501529193501690637518ead690606401600060405180830381600087803b1580156111e257600080fd5b505af11580156111f6573d6000803e3d6000fd5b50506040518492507f7fd82bcf8b3eb0f05d3cb2767fcb47b08271e394720dedc1ee8ea53a077ab0649150600090a25050565b600080546001600160a01b038381166001600160a01b0319831681178455604051919092169283917f8be0079c531659141344cd1fd0a4f28419497f9722a3daafe3b4186f6b6457e09190a35050565b80356001600160a01b038116811461129057600080fd5b919050565b6000602082840312156112a6578081fd5b610a0182611279565b600080604083850312156112c1578081fd5b6112ca83611279565b91506112d860208401611279565b90509250929050565b600080600080608085870312156112f6578182fd5b6112ff85611279565b935061130d60208601611279565b925061131b60408601611279565b9396929550929360600135925050565b6000806020838503121561133d578182fd5b823567ffffffffffffffff80821115611354578384fd5b818501915085601f830112611367578384fd5b813581811115611375578485fd5b8660208260051b8501011115611389578485fd5b60209290920196919550909350505050565b6000602082840312156113ac578081fd5b81518015158114610a01578182fd5b600080602083850312156113cd578182fd5b823567ffffffffffffffff808211156113e4578384fd5b818501915085601f8301126113f7578384fd5b813581811115611405578485fd5b866020828501011115611389578485fd5b600060208284031215611427578081fd5b81516001600160801b0381168114610a01578182fd5b60006020828403121561144e578081fd5b5035919050565b600060208284031215611466578081fd5b5051919050565b8215158152600060206040818401528351806040850152825b818110156114a257858101830151858201606001528201611486565b818111156114b35783606083870101525b50601f01601f191692909201606001949350505050565b6020808252818101527f4f776e61626c653a2063616c6c6572206973206e6f7420746865206f776e6572604082015260600190565b6000821982111561151257611512611568565b500190565b600081600019048311821515161561153157611531611568565b500290565b60008282101561154857611548611568565b500390565b600060001982141561156157611561611568565b5060010190565b634e487b7160e01b600052601160045260246000fdfea2646970667358221220bfb9cc49be08b21c280855cb1efff5167d291a6d08e8dc86ece7dfce1217425464736f6c63430008040033",
  "deployedBytecode": "0x608060405234801561001057600080fd5b506004361061010b5760003560e01c806371337ce7116100a25780638da5cb5b116100715780638da5cb5b14610247578063c36d16a914610262578063e67cc0f614610275578063f2fde38b14610288578063fbe4d9211461029b57600080fd5b806371337ce7146101f6578063715018a6146102195780637dab2e761461022157806383840cd61461023457600080fd5b80634585e33b116100de5780634585e33b146101a65780634f8dadb1146101b957806353810842146101cc5780636e04ff0d146101d557600080fd5b806303ade2051461011057806310ae7e121461016c5780631a57610614610181578063394003fe14610193575b600080fd5b61012361011e3660046112af565b6102ae565b604080516001600160a01b0395861681529385166020808601919091528351861691850191909152909101519092166060820152608081019190915260a0015b60405180910390f35b61017f61017a36600461132b565b6102f4565b005b6001545b604051908152602001610163565b61017f6101a13660046112af565b610345565b61017f6101b43660046113bb565b6103fd565b61017f6101c736600461143d565b610416565b61018560045481565b6101e86101e33660046113bb565b6106c1565b60405161016392919061146d565b61020961020436600461143d565b61075c565b6040519015158152602001610163565b61017f610a08565b61018561022f3660046112af565b610a3e565b61017f6102423660046112e1565b610a69565b6000546040516001600160a01b039091168152602001610163565b61017f61027036600461143d565b610e62565b61012361028336600461143d565b610e91565b61017f610296366004611295565b61101e565b61017f6102a936600461143d565b6110b9565b6000806102cb604080518082019091526000808252602082015290565b6000806102d88787610a3e565b90506102e381610e91565b929a91995097509095509350505050565b60005b818110156103405761032e83838381811061032257634e487b7160e01b600052603260045260246000fd5b90506020020135610416565b806103388161154d565b9150506102f7565b505050565b6001600160a01b0382166103985760405162461bcd60e51b81526020600482015260156024820152740c081059191c995cdcc81b9bdd08185b1b1bddd959605a1b60448201526064015b60405180910390fd5b6001600160a01b0381166103e65760405162461bcd60e51b81526020600482015260156024820152740c081059191c995cdcc81b9bdd08185b1b1bddd959605a1b604482015260640161038f565b60006103f28383610a3e565b905061034081610416565b600061040b8284018461143d565b9050610340816110b9565b600154811061045d5760405162461bcd60e51b8152602060048201526013602482015272496e646578206f7574206f6620626f756e647360681b604482015260640161038f565b60006001828154811061048057634e487b7160e01b600052603260045260246000fd5b600091825260209182902060408051608081018252600590930290910180546001600160a01b03908116845260018201548116848601528251808401845260028301548216815260038301548216958101959095529183019390935260049092015460608201528051909250163314806104fd5750428160600151105b61053e5760405162461bcd60e51b8152602060048201526012602482015271043616e27742064656c65746520546f7055760741b604482015260640161038f565b80516001600160a01b03908116600090815260026020908152604080832082860151909416835292905220546105a85760405162461bcd60e51b815260206004820152600f60248201526e151bdc155c081b9bdd08199bdd5b99608a1b604482015260640161038f565b80516001600160a01b03908116600090815260026020908152604080832082860151909416835292905290812081905560018054849081106105fa57634e487b7160e01b600052603260045260246000fd5b6000918252602080832060059290920290910180546001600160a01b0319166001600160a01b039485161790556003805460018101825592527fc2575a0e9e593c00f959f8c92f12db2869c3395a3b0502d05e2516446f71f85b90910184905582810151835160408086015180850151905160608089015184519389168452918816968301969096529181019190915291841693169185917f127b034ee57fd43d9ec93db5366ad2c53332e34153f7b6ebc9f415e576cd25c5910160405180910390a45050565b60006060600060045485858101906106d9919061143d565b6106e39190611517565b90506000600454826106f591906114ff565b9050815b818110156107515761070a8161075c565b1561073f5760018160405160200161072491815260200190565b60405160208183030381529060405294509450505050610755565b806107498161154d565b9150506106f9565b5050505b9250929050565b600154600090821061077057506000919050565b60006001838154811061079357634e487b7160e01b600052603260045260246000fd5b600091825260209182902060408051608081018252600590930290910180546001600160a01b0390811684526001820154811684860152825180840184526002830154821681526003830154821695810195909552918301939093526004909201546060820152805190925016158061080f5750428160600151105b806108a557506040818101516020810151835191519251636eb1769f60e11b81526001600160a01b0392831660048201529282166024840152169063dd62ed3e9060440160206040518083038186803b15801561086b57600080fd5b505afa15801561087f573d6000803e3d6000fd5b505050506040513d601f19601f820116820180604052508101906108a39190611455565b155b156108b35750600092915050565b80602001516001600160a01b031673__$54d325ae404b42ae8b5ae0c2d3f54eba01$__63d650823e909183600001517f00000000000000000000000000000000000000000000000000000000000000006001600160a01b0316639731d9f66040518163ffffffff1660e01b815260040160206040518083038186803b15801561093b57600080fd5b505afa15801561094f573d6000803e3d6000fd5b505050506040513d601f19601f820116820180604052508101906109739190611416565b6040516001600160e01b031960e086901b1681526001600160a01b0393841660048201529290911660248301526001600160801b0316604482015260640160206040518083038186803b1580156109c957600080fd5b505af41580156109dd573d6000803e3d6000fd5b505050506040513d601f19601f82011682018060405250810190610a01919061139b565b9392505050565b6000546001600160a01b03163314610a325760405162461bcd60e51b815260040161038f906114ca565b610a3c6000611229565b565b6001600160a01b03918216600090815260026020908152604080832093909416825291909152205490565b6001600160a01b03841615801590610a8957506001600160a01b03831615155b8015610a9d57506001600160a01b03821615155b610ad85760405162461bcd60e51b815260206004820152600c60248201526b4e756c6c204164647265737360a01b604482015260640161038f565b428111610b165760405162461bcd60e51b815260206004820152600c60248201526b496e76616c69642074696d6560a01b604482015260640161038f565b6000610b223386610a3e565b90508015610b695760405162461bcd60e51b8152602060048201526014602482015273546f70557020616c72656164792065786973747360601b604482015260640161038f565b604080516080810182523381526001600160a01b0387811660208084019190915283518085018552888316815291871690820152918101919091526060810183905260035415610cc75760038054610bc390600190611536565b81548110610be157634e487b7160e01b600052603260045260246000fd5b906000526020600020015491508060018381548110610c1057634e487b7160e01b600052603260045260246000fd5b600091825260209182902083516005929092020180546001600160a01b03199081166001600160a01b0393841617825584840151600183018054831691851691909117905560408501518051600284018054841691861691909117905590930151600380830180549095169190931617909255606090920151600490910155805480610cac57634e487b7160e01b600052603160045260246000fd5b60019003818190600052602060002001600090559055610de9565b6001805480820182556000919091528151600582027fb10e2d527612073b26eecdfd717e6a320cf44b4afac2b0732d9fcbe2b7fa0cf6810180546001600160a01b039384166001600160a01b0319918216179091556020808601517fb10e2d527612073b26eecdfd717e6a320cf44b4afac2b0732d9fcbe2b7fa0cf784018054918616918416919091179055604086015180517fb10e2d527612073b26eecdfd717e6a320cf44b4afac2b0732d9fcbe2b7fa0cf88501805491871691851691909117905501517fb10e2d527612073b26eecdfd717e6a320cf44b4afac2b0732d9fcbe2b7fa0cf9830180549190941691161790915560608301517fb10e2d527612073b26eecdfd717e6a320cf44b4afac2b0732d9fcbe2b7fa0cfa9091015591505b3360008181526002602090815260408083206001600160a01b038b81168086529184529382902087905581518985168152938a16928401929092528201869052919084907f65606375fe43885344ec4a79b45dc99d764c89843fdca9b4d3a84668701422209060600160405180910390a4505050505050565b6000546001600160a01b03163314610e8c5760405162461bcd60e51b815260040161038f906114ca565b600455565b600080610eae604080518082019091526000808252602082015290565b6001546000908510610ef85760405162461bcd60e51b8152602060048201526013602482015272496e646578206f7574206f6620626f756e647360681b604482015260640161038f565b60018581548110610f1957634e487b7160e01b600052603260045260246000fd5b6000918252602090912060059091020154600180546001600160a01b039092169187908110610f5857634e487b7160e01b600052603260045260246000fd5b906000526020600020906005020160010160009054906101000a90046001600160a01b031660018781548110610f9e57634e487b7160e01b600052603260045260246000fd5b906000526020600020906005020160020160018881548110610fd057634e487b7160e01b600052603260045260246000fd5b600091825260209182902060059190910201600401546040805180820190915283546001600160a01b0390811682526001909401549093169183019190915292989197509550909350915050565b6000546001600160a01b031633146110485760405162461bcd60e51b815260040161038f906114ca565b6001600160a01b0381166110ad5760405162461bcd60e51b815260206004820152602660248201527f4f776e61626c653a206e6577206f776e657220697320746865207a65726f206160448201526564647265737360d01b606482015260840161038f565b6110b681611229565b50565b6110c28161075c565b6111035760405162461bcd60e51b8152602060048201526012602482015271151bdc155c0818da1958dac819985a5b195960721b604482015260640161038f565b60006001828154811061112657634e487b7160e01b600052603260045260246000fd5b60009182526020918290206040805160808101825260059390930290910180546001600160a01b0390811684526001820154811684860190815283518085018552600284015483168152600384015483169681019687528585018190526004938401546060870152518551965191519451633a8c756b60e11b8152968316938701939093528116602486015291821660448501529193501690637518ead690606401600060405180830381600087803b1580156111e257600080fd5b505af11580156111f6573d6000803e3d6000fd5b50506040518492507f7fd82bcf8b3eb0f05d3cb2767fcb47b08271e394720dedc1ee8ea53a077ab0649150600090a25050565b600080546001600160a01b038381166001600160a01b0319831681178455604051919092169283917f8be0079c531659141344cd1fd0a4f28419497f9722a3daafe3b4186f6b6457e09190a35050565b80356001600160a01b038116811461129057600080fd5b919050565b6000602082840312156112a6578081fd5b610a0182611279565b600080604083850312156112c1578081fd5b6112ca83611279565b91506112d860208401611279565b90509250929050565b600080600080608085870312156112f6578182fd5b6112ff85611279565b935061130d60208601611279565b925061131b60408601611279565b9396929550929360600135925050565b6000806020838503121561133d578182fd5b823567ffffffffffffffff80821115611354578384fd5b818501915085601f830112611367578384fd5b813581811115611375578485fd5b8660208260051b8501011115611389578485fd5b60209290920196919550909350505050565b6000602082840312156113ac578081fd5b81518015158114610a01578182fd5b600080602083850312156113cd578182fd5b823567ffffffffffffffff808211156113e4578384fd5b818501915085601f8301126113f7578384fd5b813581811115611405578485fd5b866020828501011115611389578485fd5b600060208284031215611427578081fd5b81516001600160801b0381168114610a01578182fd5b60006020828403121561144e578081fd5b5035919050565b600060208284031215611466578081fd5b5051919050565b8215158152600060206040818401528351806040850152825b818110156114a257858101830151858201606001528201611486565b818111156114b35783606083870101525b50601f01601f191692909201606001949350505050565b6020808252818101527f4f776e61626c653a2063616c6c6572206973206e6f7420746865206f776e6572604082015260600190565b6000821982111561151257611512611568565b500190565b600081600019048311821515161561153157611531611568565b500290565b60008282101561154857611548611568565b500390565b600060001982141561156157611561611568565b5060010190565b634e487b7160e01b600052601160045260246000fdfea2646970667358221220bfb9cc49be08b21c280855cb1efff5167d291a6d08e8dc86ece7dfce1217425464736f6c63430008040033",
  "libraries": {
    "StrollHelper": "0xDd9B184686CA407B31DBac633528F4C5bC5362d9"
  },
  "devdoc": {
    "kind": "dev",
    "methods": {
      "owner()": {
        "details": "Returns the address of the current owner."
      },
      "renounceOwnership()": {
        "details": "Leaves the contract without owner. It will not be possible to call `onlyOwner` functions anymore. Can only be called by the current owner. NOTE: Renouncing ownership will leave the contract without an owner, thereby removing any functionality that is only available to the owner."
      },
      "transferOwnership(address)": {
        "details": "Transfers ownership of the contract to a new account (`newOwner`). Can only be called by the current owner."
      }
    },
    "version": 1
  },
  "userdoc": {
    "kind": "user",
    "methods": {},
    "version": 1
  },
  "storageLayout": {
    "storage": [
      {
        "astId": 7,
        "contract": "contracts/Registry.sol:Registry",
        "label": "_owner",
        "offset": 0,
        "slot": "0",
        "type": "t_address"
      },
      {
        "astId": 3003,
        "contract": "contracts/Registry.sol:Registry",
        "label": "topUps",
        "offset": 0,
        "slot": "1",
        "type": "t_array(t_struct(TopUp)2999_storage)dyn_storage"
      },
      {
        "astId": 3009,
        "contract": "contracts/Registry.sol:Registry",
        "label": "topUpMap",
        "offset": 0,
        "slot": "2",
        "type": "t_mapping(t_address,t_mapping(t_address,t_uint256))"
      },
      {
        "astId": 3012,
        "contract": "contracts/Registry.sol:Registry",
        "label": "deletedTopUps",
        "offset": 0,
        "slot": "3",
        "type": "t_array(t_uint256)dyn_storage"
      },
      {
        "astId": 3014,
        "contract": "contracts/Registry.sol:Registry",
        "label": "scanLength",
        "offset": 0,
        "slot": "4",
        "type": "t_uint256"
      }
    ],
    "types": {
      "t_address": {
        "encoding": "inplace",
        "label": "address",
        "numberOfBytes": "20"
      },
      "t_array(t_struct(TopUp)2999_storage)dyn_storage": {
        "base": "t_struct(TopUp)2999_storage",
        "encoding": "dynamic_array",
        "label": "struct Registry.TopUp[]",
        "numberOfBytes": "32"
      },
      "t_array(t_uint256)dyn_storage": {
        "base": "t_uint256",
        "encoding": "dynamic_array",
        "label": "uint256[]",
        "numberOfBytes": "32"
      },
      "t_contract(IStrategy)4225": {
        "encoding": "inplace",
        "label": "contract IStrategy",
        "numberOfBytes": "20"
      },
      "t_contract(ISuperToken)1872": {
        "encoding": "inplace",
        "label": "contract ISuperToken",
        "numberOfBytes": "20"
      },
      "t_mapping(t_address,t_mapping(t_address,t_uint256))": {
        "encoding": "mapping",
        "key": "t_address",
        "label": "mapping(address => mapping(address => uint256))",
        "numberOfBytes": "32",
        "value": "t_mapping(t_address,t_uint256)"
      },
      "t_mapping(t_address,t_uint256)": {
        "encoding": "mapping",
        "key": "t_address",
        "label": "mapping(address => uint256)",
        "numberOfBytes": "32",
        "value": "t_uint256"
      },
      "t_struct(Strategy)2988_storage": {
        "encoding": "inplace",
        "label": "struct Registry.Strategy",
        "members": [
          {
            "astId": 2985,
            "contract": "contracts/Registry.sol:Registry",
            "label": "strategyAddress",
            "offset": 0,
            "slot": "0",
            "type": "t_contract(IStrategy)4225"
          },
          {
            "astId": 2987,
            "contract": "contracts/Registry.sol:Registry",
            "label": "token",
            "offset": 0,
            "slot": "1",
            "type": "t_address"
          }
        ],
        "numberOfBytes": "64"
      },
      "t_struct(TopUp)2999_storage": {
        "encoding": "inplace",
        "label": "struct Registry.TopUp",
        "members": [
          {
            "astId": 2990,
            "contract": "contracts/Registry.sol:Registry",
            "label": "owner",
            "offset": 0,
            "slot": "0",
            "type": "t_address"
          },
          {
            "astId": 2993,
            "contract": "contracts/Registry.sol:Registry",
            "label": "superToken",
            "offset": 0,
            "slot": "1",
            "type": "t_contract(ISuperToken)1872"
          },
          {
            "astId": 2996,
            "contract": "contracts/Registry.sol:Registry",
            "label": "strategy",
            "offset": 0,
            "slot": "2",
            "type": "t_struct(Strategy)2988_storage"
          },
          {
            "astId": 2998,
            "contract": "contracts/Registry.sol:Registry",
            "label": "time",
            "offset": 0,
            "slot": "4",
            "type": "t_uint256"
          }
        ],
        "numberOfBytes": "160"
      },
      "t_uint256": {
        "encoding": "inplace",
        "label": "uint256",
        "numberOfBytes": "32"
      }
    }
  }
}