{
  "address": "0x0E1C25E9472539Fd5dcD73F7b13df32D9b8CBcd0",
  "abi": [
    {
      "inputs": [
        {
          "internalType": "uint32",
          "name": "_supplyAssetLimit",
          "type": "uint32"
        },
        {
          "internalType": "uint128",
          "name": "_upperLimit",
          "type": "uint128"
        },
        {
          "internalType": "uint128",
          "name": "_lowerLimit",
          "type": "uint128"
        }
      ],
      "stateMutability": "nonpayable",
      "type": "constructor"
    },
    {
      "anonymous": false,
      "inputs": [
        {
          "indexed": false,
          "internalType": "address",
          "name": "_underlyingToken",
          "type": "address"
        },
        {
          "indexed": false,
          "internalType": "address",
          "name": "_superToken",
          "type": "address"
        }
      ],
      "name": "AddSuperToken",
      "type": "event"
    },
    {
      "anonymous": false,
      "inputs": [
        {
          "indexed": false,
          "internalType": "address",
          "name": "_lpToken",
          "type": "address"
        },
        {
          "indexed": false,
          "internalType": "address",
          "name": "_underlyingToken",
          "type": "address"
        }
      ],
      "name": "AddSupportedUnderlyingToken",
      "type": "event"
    },
    {
      "anonymous": false,
      "inputs": [
        {
          "indexed": false,
          "internalType": "uint128",
          "name": "_newLowerLimit",
          "type": "uint128"
        }
      ],
      "name": "ChangedLowerLimit",
      "type": "event"
    },
    {
      "anonymous": false,
      "inputs": [
        {
          "indexed": false,
          "internalType": "address",
          "name": "_newStrollRegistry",
          "type": "address"
        }
      ],
      "name": "ChangedStrollRegistry",
      "type": "event"
    },
    {
      "anonymous": false,
      "inputs": [
        {
          "indexed": false,
          "internalType": "uint32",
          "name": "_newSupplyLimit",
          "type": "uint32"
        }
      ],
      "name": "ChangedSupplyAssetLimit",
      "type": "event"
    },
    {
      "anonymous": false,
      "inputs": [
        {
          "indexed": false,
          "internalType": "uint128",
          "name": "_newUpperLimit",
          "type": "uint128"
        }
      ],
      "name": "ChangedUpperLimit",
      "type": "event"
    },
    {
      "anonymous": false,
      "inputs": [
        {
          "indexed": true,
          "internalType": "address",
          "name": "previousOwner",
          "type": "address"
        },
        {
          "indexed": true,
          "internalType": "address",
          "name": "newOwner",
          "type": "address"
        }
      ],
      "name": "OwnershipTransferred",
      "type": "event"
    },
    {
      "inputs": [
        {
          "internalType": "contract ISuperToken",
          "name": "_superToken",
          "type": "address"
        }
      ],
      "name": "addSupportedSuperToken",
      "outputs": [],
      "stateMutability": "nonpayable",
      "type": "function"
    },
    {
      "inputs": [
        {
          "internalType": "uint128",
          "name": "_newLowerLimit",
          "type": "uint128"
        }
      ],
      "name": "changeLowerLimit",
      "outputs": [],
      "stateMutability": "nonpayable",
      "type": "function"
    },
    {
      "inputs": [
        {
          "internalType": "address",
          "name": "_strollRegistry",
          "type": "address"
        }
      ],
      "name": "changeStrollRegistry",
      "outputs": [],
      "stateMutability": "nonpayable",
      "type": "function"
    },
    {
      "inputs": [
        {
          "internalType": "uint32",
          "name": "_newSupplyLimit",
          "type": "uint32"
        }
      ],
      "name": "changeSupplyAssetLimit",
      "outputs": [],
      "stateMutability": "nonpayable",
      "type": "function"
    },
    {
      "inputs": [
        {
          "internalType": "uint128",
          "name": "_newUpperLimit",
          "type": "uint128"
        }
      ],
      "name": "changeUpperLimit",
      "outputs": [],
      "stateMutability": "nonpayable",
      "type": "function"
    },
    {
      "inputs": [],
      "name": "lowerLimit",
      "outputs": [
        {
          "internalType": "uint128",
          "name": "",
          "type": "uint128"
        }
      ],
      "stateMutability": "view",
      "type": "function"
    },
    {
      "inputs": [],
      "name": "owner",
      "outputs": [
        {
          "internalType": "address",
          "name": "",
          "type": "address"
        }
      ],
      "stateMutability": "view",
      "type": "function"
    },
    {
      "inputs": [],
      "name": "renounceOwnership",
      "outputs": [],
      "stateMutability": "nonpayable",
      "type": "function"
    },
    {
      "inputs": [],
      "name": "strollRegistry",
      "outputs": [
        {
          "internalType": "address",
          "name": "",
          "type": "address"
        }
      ],
      "stateMutability": "view",
      "type": "function"
    },
    {
      "inputs": [],
      "name": "supplyAssetLimit",
      "outputs": [
        {
          "internalType": "uint32",
          "name": "",
          "type": "uint32"
        }
      ],
      "stateMutability": "view",
      "type": "function"
    },
    {
      "inputs": [
        {
          "internalType": "address",
          "name": "",
          "type": "address"
        }
      ],
      "name": "supportedSuperToken",
      "outputs": [
        {
          "internalType": "contract ISuperToken",
          "name": "",
          "type": "address"
        }
      ],
      "stateMutability": "view",
      "type": "function"
    },
    {
      "inputs": [
        {
          "internalType": "address",
          "name": "newOwner",
          "type": "address"
        }
      ],
      "name": "transferOwnership",
      "outputs": [],
      "stateMutability": "nonpayable",
      "type": "function"
    },
    {
      "inputs": [],
      "name": "upperLimit",
      "outputs": [
        {
          "internalType": "uint128",
          "name": "",
          "type": "uint128"
        }
      ],
      "stateMutability": "view",
      "type": "function"
    }
  ],
  "transactionHash": "0x1017b48fd881bd326382ca1c46b8b19bc979190079655cf865ce6f2f6bc7b55f",
  "args": [
    1,
    432000,
    86400
  ],
  "numDeployments": 1,
  "solcInputHash": "5e19d5afaed73d9448299566d54232a4",
  "bytecode": "0x608060405234801561001057600080fd5b50604051610a23380380610a2383398101604081905261002f916100e5565b61003833610079565b6000805463ffffffff909416600160a01b0263ffffffff60a01b19909416939093179092556001600160801b03918216600160801b02911617600155610131565b600080546001600160a01b038381166001600160a01b0319831681178455604051919092169283917f8be0079c531659141344cd1fd0a4f28419497f9722a3daafe3b4186f6b6457e09190a35050565b80516001600160801b03811681146100e057600080fd5b919050565b6000806000606084860312156100f9578283fd5b835163ffffffff8116811461010c578384fd5b925061011a602085016100c9565b9150610128604085016100c9565b90509250925092565b6108e3806101406000396000f3fe608060405234801561001057600080fd5b50600436106100cf5760003560e01c8063873b5d421161008c5780639731d9f6116100665780639731d9f6146101bf578063e6c04668146101d9578063f2eb856e146101ec578063f2fde38b1461021857600080fd5b8063873b5d42146101725780638da5cb5b146101855780638f3382251461019657600080fd5b806314d26b5e146100d457806328bc7714146100e957806338392c40146101195780633c4061cd1461014457806362b2a9af14610157578063715018a61461016a575b600080fd5b6100e76100e236600461084d565b61022b565b005b6002546100fc906001600160a01b031681565b6040516001600160a01b0390911681526020015b60405180910390f35b60015461012c906001600160801b031681565b6040516001600160801b039091168152602001610110565b6100e761015236600461080e565b6102f2565b6100e761016536600461084d565b610444565b6100e76104ef565b6100e761018036600461080e565b610555565b6000546001600160a01b03166100fc565b6100fc6101a436600461080e565b6003602052600090815260409020546001600160a01b031681565b60015461012c90600160801b90046001600160801b031681565b6100e76101e7366004610874565b6105f1565b60005461020390600160a01b900463ffffffff1681565b60405163ffffffff9091168152602001610110565b6100e761022636600461080e565b6106aa565b61023433610775565b6001546001600160801b03600160801b9091048116908216116102945760405162461bcd60e51b8152602060048201526013602482015272125b9d985b1a59081d5c1c195c881b1a5b5a5d606a1b60448201526064015b60405180910390fd5b600180546fffffffffffffffffffffffffffffffff19166001600160801b0383169081179091556040519081527f0c71751e6c7cd1e09a1a052be53af11dba9b5c7a6803d50f4c0dca229e6a7cd6906020015b60405180910390a150565b6102fb33610775565b6000816001600160a01b031663ee719bc86040518163ffffffff1660e01b815260040160206040518083038186803b15801561033657600080fd5b505afa15801561034a573d6000803e3d6000fd5b505050506040513d601f19601f8201168201806040525081019061036e9190610831565b6001600160a01b0380821660009081526003602052604090205491925016156103d95760405162461bcd60e51b815260206004820152601960248201527f5375706572746f6b656e20616c72656164792065786973747300000000000000604482015260640161028b565b6001600160a01b0381811660008181526003602090815260409182902080546001600160a01b031916948716948517905581519283528201929092527fd75afe2eb77c90f15b5f084b60b9ffd6d0f094347ed189b12b031fa4bc662ea4910160405180910390a15050565b61044d33610775565b6001546001600160801b03908116908216106104a15760405162461bcd60e51b8152602060048201526013602482015272125b9d985b1a59081b1bddd95c881b1a5b5a5d606a1b604482015260640161028b565b600180546001600160801b03908116600160801b918416918202179091556040519081527f917ab9bb3fcf7f435db366fcdc14fc5e497577a6d96b86e9fdd2b62da6ab5359906020016102e7565b6000546001600160a01b031633146105495760405162461bcd60e51b815260206004820181905260248201527f4f776e61626c653a2063616c6c6572206973206e6f7420746865206f776e6572604482015260640161028b565b61055360006107be565b565b61055e33610775565b6001600160a01b0381166105a35760405162461bcd60e51b815260206004820152600c60248201526b4e756c6c206164647265737360a01b604482015260640161028b565b600280546001600160a01b0319166001600160a01b0383169081179091556040519081527f58f1f6b58c18694afe5c44b9c1082457d2aca3dc0045f2973fdd0d14816d63af906020016102e7565b6105fa33610775565b600054600160a01b900463ffffffff166106565760405162461bcd60e51b815260206004820152601b60248201527f496e76616c696420737570706c7920617373657473206c696d69740000000000604482015260640161028b565b6000805463ffffffff60a01b1916600160a01b63ffffffff8416908102919091179091556040519081527f94920fc7fae55621e91210b4c9429f5d43612b9212f44f54902e566e841f77e6906020016102e7565b6000546001600160a01b031633146107045760405162461bcd60e51b815260206004820181905260248201527f4f776e61626c653a2063616c6c6572206973206e6f7420746865206f776e6572604482015260640161028b565b6001600160a01b0381166107695760405162461bcd60e51b815260206004820152602660248201527f4f776e61626c653a206e6577206f776e657220697320746865207a65726f206160448201526564647265737360d01b606482015260840161028b565b610772816107be565b50565b6000546001600160a01b038281169116146107725760405162461bcd60e51b81526020600482015260096024820152682737ba1037bbb732b960b91b604482015260640161028b565b600080546001600160a01b038381166001600160a01b0319831681178455604051919092169283917f8be0079c531659141344cd1fd0a4f28419497f9722a3daafe3b4186f6b6457e09190a35050565b60006020828403121561081f578081fd5b813561082a81610898565b9392505050565b600060208284031215610842578081fd5b815161082a81610898565b60006020828403121561085e578081fd5b81356001600160801b038116811461082a578182fd5b600060208284031215610885578081fd5b813563ffffffff8116811461082a578182fd5b6001600160a01b038116811461077257600080fdfea2646970667358221220bfcdb24543eb01d110d0105832f1859bef0d219e34b6d0a37a96a7b05f43ed9364736f6c63430008040033",
  "devdoc": {
    "author": "rashtrakoff",
    "kind": "dev",
    "methods": {
      "addSupportedSuperToken(address)": {
        "details": "Check if this function needs to be modified for native super tokens"
      },
      "owner()": {
        "details": "Returns the address of the current owner."
      },
      "renounceOwnership()": {
        "details": "Leaves the contract without owner. It will not be possible to call `onlyOwner` functions anymore. Can only be called by the current owner. NOTE: Renouncing ownership will leave the contract without an owner, thereby removing any functionality that is only available to the owner."
      },
      "transferOwnership(address)": {
        "details": "Transfers ownership of the contract to a new account (`newOwner`). Can only be called by the current owner."
      }
    },
    "title": "Resolver contract for Stroll",
    "version": 1
  },
  "userdoc": {
    "kind": "user",
    "methods": {
      "lowerLimit()": {
        "notice": "Number of seconds, hours or days worth of liquidity below which top up is done"
      },
      "strollRegistry()": {
        "notice": "Registry contract containing top up data"
      },
      "supplyAssetLimit()": {
        "notice": "Number of LP tokens or equivalent assets that a user can provide for making top ups"
      },
      "supportedSuperToken(address)": {
        "notice": "Map of underlying tokens and their super tokens"
      },
      "upperLimit()": {
        "notice": "Number of seconds, hours or days worth of liquidity to be topped up with"
      }
    },
    "version": 1
  },
  "storageLayout": {
    "storage": [
      {
        "astId": 7,
        "contract": "contracts/common/StrollResolver.sol:StrollResolver",
        "label": "_owner",
        "offset": 0,
        "slot": "0",
        "type": "t_address"
      },
      {
        "astId": 3771,
        "contract": "contracts/common/StrollResolver.sol:StrollResolver",
        "label": "supplyAssetLimit",
        "offset": 20,
        "slot": "0",
        "type": "t_uint32"
      },
      {
        "astId": 3775,
        "contract": "contracts/common/StrollResolver.sol:StrollResolver",
        "label": "upperLimit",
        "offset": 0,
        "slot": "1",
        "type": "t_uint128"
      },
      {
        "astId": 3779,
        "contract": "contracts/common/StrollResolver.sol:StrollResolver",
        "label": "lowerLimit",
        "offset": 16,
        "slot": "1",
        "type": "t_uint128"
      },
      {
        "astId": 3783,
        "contract": "contracts/common/StrollResolver.sol:StrollResolver",
        "label": "strollRegistry",
        "offset": 0,
        "slot": "2",
        "type": "t_address"
      },
      {
        "astId": 3790,
        "contract": "contracts/common/StrollResolver.sol:StrollResolver",
        "label": "supportedSuperToken",
        "offset": 0,
        "slot": "3",
        "type": "t_mapping(t_address,t_contract(ISuperToken)1872)"
      }
    ],
    "types": {
      "t_address": {
        "encoding": "inplace",
        "label": "address",
        "numberOfBytes": "20"
      },
      "t_contract(ISuperToken)1872": {
        "encoding": "inplace",
        "label": "contract ISuperToken",
        "numberOfBytes": "20"
      },
      "t_mapping(t_address,t_contract(ISuperToken)1872)": {
        "encoding": "mapping",
        "key": "t_address",
        "label": "mapping(address => contract ISuperToken)",
        "numberOfBytes": "32",
        "value": "t_contract(ISuperToken)1872"
      },
      "t_uint128": {
        "encoding": "inplace",
        "label": "uint128",
        "numberOfBytes": "16"
      },
      "t_uint32": {
        "encoding": "inplace",
        "label": "uint32",
        "numberOfBytes": "4"
      }
    }
  }
}