{
  "address": "0xC2321D1Ea7f7846100f4ECB9901F723cA5fE14A6",
  "abi": [
    {
      "inputs": [],
      "name": "CFA_V1",
      "outputs": [
        {
          "internalType": "contract IConstantFlowAgreementV1",
          "name": "",
          "type": "IConstantFlowAgreementV1"
        }
      ],
      "stateMutability": "view",
      "type": "function"
    },
    {
      "inputs": [
        {
          "internalType": "contract ISuperToken",
          "name": "_superToken",
          "type": "ISuperToken"
        },
        {
          "internalType": "address",
          "name": "_user",
          "type": "address"
        },
        {
          "internalType": "uint128",
          "name": "_lowerLimit",
          "type": "uint128"
        }
      ],
      "name": "checkTopUp",
      "outputs": [
        {
          "internalType": "bool",
          "name": "",
          "type": "bool"
        }
      ],
      "stateMutability": "view",
      "type": "function"
    },
    {
      "inputs": [
        {
          "internalType": "contract ISuperToken",
          "name": "_superToken",
          "type": "ISuperToken"
        },
        {
          "internalType": "address",
          "name": "_user",
          "type": "address"
        },
        {
          "internalType": "uint128",
          "name": "_lowerLimit",
          "type": "uint128"
        },
        {
          "internalType": "uint128",
          "name": "_upperLimit",
          "type": "uint128"
        }
      ],
      "name": "requireTopUp",
      "outputs": [
        {
          "internalType": "bool",
          "name": "",
          "type": "bool"
        },
        {
          "internalType": "uint256",
          "name": "",
          "type": "uint256"
        }
      ],
      "stateMutability": "view",
      "type": "function"
    }
  ],
  "transactionHash": "0xf0c673167a9ac7da7f1d7644aee813b1917178f3bfd70925f158dd4f63941603",
  "args": [],
  "numDeployments": 1,
  "solcInputHash": "5e19d5afaed73d9448299566d54232a4",
  "bytecode": "0x61086761003a600b82828239805160001a60731461002d57634e487b7160e01b600052600060045260246000fd5b30600052607381538281f3fe730000000000000000000000000000000000000000301460806040526004361061004b5760003560e01c80633db29ed814610050578063d650823e14610088578063e449af6e146100ab575b600080fd5b61006b7349e565ed1bdc17f3d220f72df0857c26fa83f87381565b6040516001600160a01b0390911681526020015b60405180910390f35b61009b61009636600461051f565b6100d5565b604051901515815260200161007f565b6100be6100b9366004610565565b61024d565b60408051921515835260208301919091520161007f565b60405163e8e7e2d160e01b81526001600160a01b0380851660048301528316602482015260009081907349e565ed1bdc17f3d220f72df0857c26fa83f8739063e8e7e2d19060440160206040518083038186803b15801561013557600080fd5b505afa158015610149573d6000803e3d6000fd5b505050506040513d601f19601f8201168201806040525081019061016d91906105bc565b9050600081600b0b1215610240576040516370a0823160e01b81526001600160a01b038581166004830152600091908716906370a082319060240160206040518083038186803b1580156101c057600080fd5b505afa1580156101d4573d6000803e3d6000fd5b505050506040513d601f19601f820116820180604052508101906101f891906105dd565b9050600061020883600019610726565b6bffffffffffffffffffffffff16905061022b6001600160801b038616826107c1565b821161023d5760019350505050610246565b50505b60009150505b9392505050565b60405163e8e7e2d160e01b81526001600160a01b03808616600483015284166024820152600090819081907349e565ed1bdc17f3d220f72df0857c26fa83f8739063e8e7e2d19060440160206040518083038186803b1580156102af57600080fd5b505afa1580156102c3573d6000803e3d6000fd5b505050506040513d601f19601f820116820180604052508101906102e791906105bc565b9050600081600b0b12156104d5576040516370a0823160e01b81526001600160a01b038781166004830152600091908916906370a082319060240160206040518083038186803b15801561033a57600080fd5b505afa15801561034e573d6000803e3d6000fd5b505050506040513d601f19601f8201168201806040525081019061037291906105dd565b9050600061038283600019610726565b6bffffffffffffffffffffffff1690506103a56001600160801b038816826107c1565b82116104d25760006103c06001600160801b038816836107c1565b905060018a6001600160a01b031663ee719bc86040518163ffffffff1660e01b815260040160206040518083038186803b1580156103fd57600080fd5b505afa158015610411573d6000803e3d6000fd5b505050506040513d601f19601f820116820180604052508101906104359190610503565b6001600160a01b031663313ce5676040518163ffffffff1660e01b815260040160206040518083038186803b15801561046d57600080fd5b505afa158015610481573d6000803e3d6000fd5b505050506040513d601f19601f820116820180604052508101906104a591906105f5565b6104b09060126107e0565b6104bb90600a610679565b6104c59083610616565b95509550505050506104de565b50505b60008092509250505b94509492505050565b80356001600160801b03811681146104fe57600080fd5b919050565b600060208284031215610514578081fd5b815161024681610819565b600080600060608486031215610533578182fd5b833561053e81610819565b9250602084013561054e81610819565b915061055c604085016104e7565b90509250925092565b6000806000806080858703121561057a578081fd5b843561058581610819565b9350602085013561059581610819565b92506105a3604086016104e7565b91506105b1606086016104e7565b905092959194509250565b6000602082840312156105cd578081fd5b815180600b0b8114610246578182fd5b6000602082840312156105ee578081fd5b5051919050565b600060208284031215610606578081fd5b815160ff81168114610246578182fd5b60008261063157634e487b7160e01b81526012600452602481fd5b500490565b600181815b8085111561067157816000190482111561065757610657610803565b8085161561066457918102915b93841c939080029061063b565b509250929050565b600061024660ff84168360008261069257506001610720565b8161069f57506000610720565b81600181146106b557600281146106bf576106db565b6001915050610720565b60ff8411156106d0576106d0610803565b50506001821b610720565b5060208310610133831016604e8410600b84101617156106fe575081810a610720565b6107088383610636565b806000190482111561071c5761071c610803565b0290505b92915050565b600081600b0b83600b0b6b7fffffffffffffffffffffff8382138484138383048511828216161561075957610759610803565b6b7fffffffffffffffffffffff198685128281168783058712161561078057610780610803565b87871292508582058712848416161561079b5761079b610803565b858505871281841616156107b1576107b1610803565b5050509290910295945050505050565b60008160001904831182151516156107db576107db610803565b500290565b600060ff821660ff8416808210156107fa576107fa610803565b90039392505050565b634e487b7160e01b600052601160045260246000fd5b6001600160a01b038116811461082e57600080fd5b5056fea26469706673582212208ab869f5f3589b190a367e011ea8ead33ea8b4fcd513d7cc308e5fc3382ac49464736f6c63430008040033",
  "devdoc": {
    "author": "rashtrakoff",
    "details": "Contains functions which are useful for strategy contracts and keepers",
    "kind": "dev",
    "methods": {},
    "title": "Strategy helper contract",
    "version": 1
  },
  "userdoc": {
    "kind": "user",
    "methods": {},
    "version": 1
  },
  "storageLayout": {
    "storage": [],
    "types": null
  }
}