{
  "address": "0x896d448119F6901d27845f77083Dfe5456C05099",
  "abi": [
    {
      "inputs": [
        {
          "internalType": "address",
          "name": "_icfa",
          "type": "address"
        },
        {
          "internalType": "uint64",
          "name": "_minLower",
          "type": "uint64"
        },
        {
          "internalType": "uint64",
          "name": "_minUpper",
          "type": "uint64"
        }
      ],
      "stateMutability": "nonpayable",
      "type": "constructor"
    },
    {
      "inputs": [
        {
          "internalType": "uint64",
          "name": "limitGiven",
          "type": "uint64"
        },
        {
          "internalType": "uint64",
          "name": "minLimit",
          "type": "uint64"
        }
      ],
      "name": "InsufficientLimits",
      "type": "error"
    },
    {
      "inputs": [
        {
          "internalType": "uint64",
          "name": "expirationTimeGiven",
          "type": "uint64"
        },
        {
          "internalType": "uint256",
          "name": "timeNow",
          "type": "uint256"
        }
      ],
      "name": "InvalidExpirationTime",
      "type": "error"
    },
    {
      "inputs": [
        {
          "internalType": "address",
          "name": "strategy",
          "type": "address"
        }
      ],
      "name": "InvalidStrategy",
      "type": "error"
    },
    {
      "inputs": [
        {
          "internalType": "bytes32",
          "name": "index",
          "type": "bytes32"
        }
      ],
      "name": "TopUpNotRequired",
      "type": "error"
    },
    {
      "inputs": [
        {
          "internalType": "address",
          "name": "caller",
          "type": "address"
        },
        {
          "internalType": "address",
          "name": "expectedCaller",
          "type": "address"
        }
      ],
      "name": "UnauthorizedCaller",
      "type": "error"
    },
    {
      "inputs": [
        {
          "internalType": "address",
          "name": "superToken",
          "type": "address"
        }
      ],
      "name": "UnsupportedSuperToken",
      "type": "error"
    },
    {
      "inputs": [
        {
          "internalType": "uint64",
          "name": "lowerLimit",
          "type": "uint64"
        },
        {
          "internalType": "uint64",
          "name": "upperLimit",
          "type": "uint64"
        }
      ],
      "name": "WrongLimits",
      "type": "error"
    },
    {
      "inputs": [],
      "name": "ZeroAddress",
      "type": "error"
    },
    {
      "anonymous": false,
      "inputs": [
        {
          "indexed": true,
          "internalType": "address",
          "name": "strategy",
          "type": "address"
        }
      ],
      "name": "AddedApprovedStrategy",
      "type": "event"
    },
    {
      "anonymous": false,
      "inputs": [
        {
          "indexed": false,
          "internalType": "uint64",
          "name": "lowerLimit",
          "type": "uint64"
        },
        {
          "indexed": false,
          "internalType": "uint64",
          "name": "upperLimit",
          "type": "uint64"
        }
      ],
      "name": "LimitsChanged",
      "type": "event"
    },
    {
      "anonymous": false,
      "inputs": [
        {
          "indexed": true,
          "internalType": "address",
          "name": "previousOwner",
          "type": "address"
        },
        {
          "indexed": true,
          "internalType": "address",
          "name": "newOwner",
          "type": "address"
        }
      ],
      "name": "OwnershipTransferred",
      "type": "event"
    },
    {
      "anonymous": false,
      "inputs": [
        {
          "indexed": true,
          "internalType": "bytes32",
          "name": "id",
          "type": "bytes32"
        },
        {
          "indexed": false,
          "internalType": "uint256",
          "name": "topUpAmount",
          "type": "uint256"
        }
      ],
      "name": "PerformedTopUp",
      "type": "event"
    },
    {
      "anonymous": false,
      "inputs": [
        {
          "indexed": true,
          "internalType": "address",
          "name": "strategy",
          "type": "address"
        }
      ],
      "name": "RemovedApprovedStrategy",
      "type": "event"
    },
    {
      "anonymous": false,
      "inputs": [
        {
          "indexed": true,
          "internalType": "bytes32",
          "name": "id",
          "type": "bytes32"
        },
        {
          "indexed": true,
          "internalType": "address",
          "name": "user",
          "type": "address"
        },
        {
          "indexed": true,
          "internalType": "address",
          "name": "superToken",
          "type": "address"
        },
        {
          "indexed": false,
          "internalType": "address",
          "name": "strategy",
          "type": "address"
        },
        {
          "indexed": false,
          "internalType": "address",
          "name": "liquidityToken",
          "type": "address"
        },
        {
          "indexed": false,
          "internalType": "uint256",
          "name": "expiry",
          "type": "uint256"
        },
        {
          "indexed": false,
          "internalType": "uint256",
          "name": "lowerLimit",
          "type": "uint256"
        },
        {
          "indexed": false,
          "internalType": "uint256",
          "name": "upperLimit",
          "type": "uint256"
        }
      ],
      "name": "TopUpCreated",
      "type": "event"
    },
    {
      "anonymous": false,
      "inputs": [
        {
          "indexed": true,
          "internalType": "bytes32",
          "name": "id",
          "type": "bytes32"
        },
        {
          "indexed": true,
          "internalType": "address",
          "name": "user",
          "type": "address"
        },
        {
          "indexed": true,
          "internalType": "address",
          "name": "superToken",
          "type": "address"
        },
        {
          "indexed": false,
          "internalType": "address",
          "name": "strategy",
          "type": "address"
        },
        {
          "indexed": false,
          "internalType": "address",
          "name": "liquidityToken",
          "type": "address"
        }
      ],
      "name": "TopUpDeleted",
      "type": "event"
    },
    {
      "inputs": [],
      "name": "CFA_V1",
      "outputs": [
        {
          "internalType": "contract IConstantFlowAgreementV1",
          "name": "",
          "type": "address"
        }
      ],
      "stateMutability": "view",
      "type": "function"
    },
    {
      "inputs": [
        {
          "internalType": "address",
          "name": "_strategy",
          "type": "address"
        }
      ],
      "name": "addApprovedStrategy",
      "outputs": [],
      "stateMutability": "nonpayable",
      "type": "function"
    },
    {
      "inputs": [
        {
          "internalType": "address",
          "name": "",
          "type": "address"
        }
      ],
      "name": "approvedStrategies",
      "outputs": [
        {
          "internalType": "bool",
          "name": "",
          "type": "bool"
        }
      ],
      "stateMutability": "view",
      "type": "function"
    },
    {
      "inputs": [
        {
          "internalType": "address",
          "name": "_user",
          "type": "address"
        },
        {
          "internalType": "address",
          "name": "_superToken",
          "type": "address"
        },
        {
          "internalType": "address",
          "name": "_liquidityToken",
          "type": "address"
        }
      ],
      "name": "checkTopUp",
      "outputs": [
        {
          "internalType": "uint256",
          "name": "",
          "type": "uint256"
        }
      ],
      "stateMutability": "view",
      "type": "function"
    },
    {
      "inputs": [
        {
          "internalType": "bytes32",
          "name": "_index",
          "type": "bytes32"
        }
      ],
      "name": "checkTopUpByIndex",
      "outputs": [
        {
          "internalType": "uint256",
          "name": "_amount",
          "type": "uint256"
        }
      ],
      "stateMutability": "view",
      "type": "function"
    },
    {
      "inputs": [
        {
          "internalType": "address",
          "name": "_superToken",
          "type": "address"
        },
        {
          "internalType": "address",
          "name": "_strategy",
          "type": "address"
        },
        {
          "internalType": "address",
          "name": "_liquidityToken",
          "type": "address"
        },
        {
          "internalType": "uint64",
          "name": "_expiry",
          "type": "uint64"
        },
        {
          "internalType": "uint64",
          "name": "_lowerLimit",
          "type": "uint64"
        },
        {
          "internalType": "uint64",
          "name": "_upperLimit",
          "type": "uint64"
        }
      ],
      "name": "createTopUp",
      "outputs": [],
      "stateMutability": "nonpayable",
      "type": "function"
    },
    {
      "inputs": [
        {
          "internalType": "bytes32[]",
          "name": "_indices",
          "type": "bytes32[]"
        }
      ],
      "name": "deleteBatch",
      "outputs": [],
      "stateMutability": "nonpayable",
      "type": "function"
    },
    {
      "inputs": [
        {
          "internalType": "address",
          "name": "_user",
          "type": "address"
        },
        {
          "internalType": "address",
          "name": "_superToken",
          "type": "address"
        },
        {
          "internalType": "address",
          "name": "_liquidityToken",
          "type": "address"
        }
      ],
      "name": "deleteTopUp",
      "outputs": [],
      "stateMutability": "nonpayable",
      "type": "function"
    },
    {
      "inputs": [
        {
          "internalType": "bytes32",
          "name": "_index",
          "type": "bytes32"
        }
      ],
      "name": "deleteTopUpByIndex",
      "outputs": [],
      "stateMutability": "nonpayable",
      "type": "function"
    },
    {
      "inputs": [
        {
          "internalType": "address",
          "name": "_user",
          "type": "address"
        },
        {
          "internalType": "address",
          "name": "_superToken",
          "type": "address"
        },
        {
          "internalType": "address",
          "name": "_liquidityToken",
          "type": "address"
        }
      ],
      "name": "getTopUp",
      "outputs": [
        {
          "components": [
            {
              "internalType": "address",
              "name": "user",
              "type": "address"
            },
            {
              "internalType": "contract ISuperToken",
              "name": "superToken",
              "type": "address"
            },
            {
              "internalType": "contract IStrategy",
              "name": "strategy",
              "type": "address"
            },
            {
              "internalType": "address",
              "name": "liquidityToken",
              "type": "address"
            },
            {
              "internalType": "uint64",
              "name": "expiry",
              "type": "uint64"
            },
            {
              "internalType": "uint64",
              "name": "lowerLimit",
              "type": "uint64"
            },
            {
              "internalType": "uint64",
              "name": "upperLimit",
              "type": "uint64"
            }
          ],
          "internalType": "struct IStrollManager.TopUp",
          "name": "",
          "type": "tuple"
        }
      ],
      "stateMutability": "view",
      "type": "function"
    },
    {
      "inputs": [
        {
          "internalType": "bytes32",
          "name": "_index",
          "type": "bytes32"
        }
      ],
      "name": "getTopUpByIndex",
      "outputs": [
        {
          "components": [
            {
              "internalType": "address",
              "name": "user",
              "type": "address"
            },
            {
              "internalType": "contract ISuperToken",
              "name": "superToken",
              "type": "address"
            },
            {
              "internalType": "contract IStrategy",
              "name": "strategy",
              "type": "address"
            },
            {
              "internalType": "address",
              "name": "liquidityToken",
              "type": "address"
            },
            {
              "internalType": "uint64",
              "name": "expiry",
              "type": "uint64"
            },
            {
              "internalType": "uint64",
              "name": "lowerLimit",
              "type": "uint64"
            },
            {
              "internalType": "uint64",
              "name": "upperLimit",
              "type": "uint64"
            }
          ],
          "internalType": "struct IStrollManager.TopUp",
          "name": "",
          "type": "tuple"
        }
      ],
      "stateMutability": "view",
      "type": "function"
    },
    {
      "inputs": [
        {
          "internalType": "address",
          "name": "_user",
          "type": "address"
        },
        {
          "internalType": "address",
          "name": "_superToken",
          "type": "address"
        },
        {
          "internalType": "address",
          "name": "_liquidityToken",
          "type": "address"
        }
      ],
      "name": "getTopUpIndex",
      "outputs": [
        {
          "internalType": "bytes32",
          "name": "",
          "type": "bytes32"
        }
      ],
      "stateMutability": "pure",
      "type": "function"
    },
    {
      "inputs": [],
      "name": "minLower",
      "outputs": [
        {
          "internalType": "uint64",
          "name": "",
          "type": "uint64"
        }
      ],
      "stateMutability": "view",
      "type": "function"
    },
    {
      "inputs": [],
      "name": "minUpper",
      "outputs": [
        {
          "internalType": "uint64",
          "name": "",
          "type": "uint64"
        }
      ],
      "stateMutability": "view",
      "type": "function"
    },
    {
      "inputs": [],
      "name": "owner",
      "outputs": [
        {
          "internalType": "address",
          "name": "",
          "type": "address"
        }
      ],
      "stateMutability": "view",
      "type": "function"
    },
    {
      "inputs": [
        {
          "internalType": "address",
          "name": "_user",
          "type": "address"
        },
        {
          "internalType": "address",
          "name": "_superToken",
          "type": "address"
        },
        {
          "internalType": "address",
          "name": "_liquidityToken",
          "type": "address"
        }
      ],
      "name": "performTopUp",
      "outputs": [],
      "stateMutability": "nonpayable",
      "type": "function"
    },
    {
      "inputs": [
        {
          "internalType": "bytes32",
          "name": "_index",
          "type": "bytes32"
        }
      ],
      "name": "performTopUpByIndex",
      "outputs": [],
      "stateMutability": "nonpayable",
      "type": "function"
    },
    {
      "inputs": [
        {
          "internalType": "address",
          "name": "_strategy",
          "type": "address"
        }
      ],
      "name": "removeApprovedStrategy",
      "outputs": [],
      "stateMutability": "nonpayable",
      "type": "function"
    },
    {
      "inputs": [],
      "name": "renounceOwnership",
      "outputs": [],
      "stateMutability": "nonpayable",
      "type": "function"
    },
    {
      "inputs": [
        {
          "internalType": "uint64",
          "name": "_lowerLimit",
          "type": "uint64"
        },
        {
          "internalType": "uint64",
          "name": "_upperLimit",
          "type": "uint64"
        }
      ],
      "name": "setLimits",
      "outputs": [],
      "stateMutability": "nonpayable",
      "type": "function"
    },
    {
      "inputs": [
        {
          "internalType": "address",
          "name": "newOwner",
          "type": "address"
        }
      ],
      "name": "transferOwnership",
      "outputs": [],
      "stateMutability": "nonpayable",
      "type": "function"
    }
  ],
  "transactionHash": "0x752b6a2010d5bea18cad5db6c38b0701d73b280a7e9cb430e18d3e458a3b6682",
  "args": [
    "0x49e565Ed1bdc17F3d220f72DF0857C26FA83F873",
    172800,
    604800
  ],
  "numDeployments": 1,
  "solcInputHash": "9735ef645084ce25b8e76e47c863ac1a",
  "bytecode": "0x60a06040523480156200001157600080fd5b50604051620031ea380380620031ea833981810160405281019062000037919062000325565b620000576200004b620001aa60201b60201c565b620001b260201b60201c565b600073ffffffffffffffffffffffffffffffffffffffff168373ffffffffffffffffffffffffffffffffffffffff1603620000be576040517fd92e233d00000000000000000000000000000000000000000000000000000000815260040160405180910390fd5b8067ffffffffffffffff168267ffffffffffffffff16106200011b5781816040517fe52779850000000000000000000000000000000000000000000000000000000081526004016200011292919062000392565b60405180910390fd5b8273ffffffffffffffffffffffffffffffffffffffff1660808173ffffffffffffffffffffffffffffffffffffffff168152505081600060146101000a81548167ffffffffffffffff021916908367ffffffffffffffff16021790555080600160006101000a81548167ffffffffffffffff021916908367ffffffffffffffff160217905550505050620003bf565b600033905090565b60008060009054906101000a900473ffffffffffffffffffffffffffffffffffffffff169050816000806101000a81548173ffffffffffffffffffffffffffffffffffffffff021916908373ffffffffffffffffffffffffffffffffffffffff1602179055508173ffffffffffffffffffffffffffffffffffffffff168173ffffffffffffffffffffffffffffffffffffffff167f8be0079c531659141344cd1fd0a4f28419497f9722a3daafe3b4186f6b6457e060405160405180910390a35050565b600080fd5b600073ffffffffffffffffffffffffffffffffffffffff82169050919050565b6000620002a8826200027b565b9050919050565b620002ba816200029b565b8114620002c657600080fd5b50565b600081519050620002da81620002af565b92915050565b600067ffffffffffffffff82169050919050565b620002ff81620002e0565b81146200030b57600080fd5b50565b6000815190506200031f81620002f4565b92915050565b60008060006060848603121562000341576200034062000276565b5b60006200035186828701620002c9565b935050602062000364868287016200030e565b925050604062000377868287016200030e565b9150509250925092565b6200038c81620002e0565b82525050565b6000604082019050620003a9600083018562000381565b620003b8602083018462000381565b9392505050565b608051612e08620003e260003960008181610b8e015261157a0152612e086000f3fe608060405234801561001057600080fd5b50600436106101375760003560e01c80638b80f351116100b8578063a7052e6b1161007c578063a7052e6b14610324578063c613aec014610342578063f11665c914610372578063f2556da9146103a2578063f29730cf146103be578063f2fde38b146103da57610137565b80638b80f3511461026e5780638bc6a9411461029e5780638da5cb5b146102ba578063947dd645146102d85780639aed5c51146102f457610137565b806359b830be116100ff57806359b830be146101ca578063715018a6146101e857806377a80e47146101f2578063854ba6d01461022257806388882af21461023e57610137565b80633aa4e5901461013c5780633db29ed8146101585780633f34c5141461017657806347cda691146101925780634e0e623d146101ae575b600080fd5b6101566004803603810190610151919061232f565b6103f6565b005b610160610b8c565b60405161016d919061241b565b60405180910390f35b610190600480360381019061018b9190612436565b610bb0565b005b6101ac60048036038101906101a791906124db565b610d15565b005b6101c860048036038101906101c39190612528565b610d61565b005b6101d2610f3e565b6040516101df9190612564565b60405180910390f35b6101f0610f58565b005b61020c6004803603810190610207919061257f565b610fe0565b60405161021991906125eb565b60405180910390f35b61023c6004803603810190610237919061263c565b610ffe565b005b6102586004803603810190610253919061263c565b611246565b60405161026591906125eb565b60405180910390f35b6102886004803603810190610283919061257f565b6118c3565b6040516102959190612757565b60405180910390f35b6102b860048036038101906102b39190612528565b6118e7565b005b6102c2611a4b565b6040516102cf9190612781565b60405180910390f35b6102f260048036038101906102ed919061263c565b611a74565b005b61030e6004803603810190610309919061263c565b611d56565b60405161031b9190612757565b60405180910390f35b61032c611f71565b6040516103399190612564565b60405180910390f35b61035c60048036038101906103579190612528565b611f8b565b60405161036991906127b7565b60405180910390f35b61038c6004803603810190610387919061257f565b611fab565b60405161039991906127e1565b60405180910390f35b6103bc60048036038101906103b7919061257f565b611fe1565b005b6103d860048036038101906103d3919061257f565b611ff9565b005b6103f460048036038101906103ef9190612528565b612011565b005b428367ffffffffffffffff16116104465782426040517fa81e80eb00000000000000000000000000000000000000000000000000000000815260040161043d9291906127fc565b60405180910390fd5b600060149054906101000a900467ffffffffffffffff1667ffffffffffffffff168267ffffffffffffffff1610156104cd5781600060149054906101000a900467ffffffffffffffff166040517f367e59f90000000000000000000000000000000000000000000000000000000081526004016104c4929190612825565b60405180910390fd5b600160009054906101000a900467ffffffffffffffff1667ffffffffffffffff168167ffffffffffffffff1610156105545780600160009054906101000a900467ffffffffffffffff166040517f367e59f900000000000000000000000000000000000000000000000000000000815260040161054b929190612825565b60405180910390fd5b6000610561338887611fab565b90503373ffffffffffffffffffffffffffffffffffffffff166003600083815260200190815260200160002060000160009054906101000a900473ffffffffffffffffffffffffffffffffffffffff1673ffffffffffffffffffffffffffffffffffffffff1614610a5d57600073ffffffffffffffffffffffffffffffffffffffff168773ffffffffffffffffffffffffffffffffffffffff1614806106335750600073ffffffffffffffffffffffffffffffffffffffff168673ffffffffffffffffffffffffffffffffffffffff16145b8061066a5750600073ffffffffffffffffffffffffffffffffffffffff168573ffffffffffffffffffffffffffffffffffffffff16145b156106a1576040517fd92e233d00000000000000000000000000000000000000000000000000000000815260040160405180910390fd5b600260008773ffffffffffffffffffffffffffffffffffffffff1673ffffffffffffffffffffffffffffffffffffffff16815260200190815260200160002060009054906101000a900460ff1661072f57856040517feb894b340000000000000000000000000000000000000000000000000000000081526004016107269190612781565b60405180910390fd5b8573ffffffffffffffffffffffffffffffffffffffff1663fc888cb0886040518263ffffffff1660e01b8152600401610768919061285d565b602060405180830381865afa158015610785573d6000803e3d6000fd5b505050506040513d601f19601f820116820180604052508101906107a991906128a4565b6107ea57866040517f1d5f93fb0000000000000000000000000000000000000000000000000000000081526004016107e19190612781565b60405180910390fd5b60006040518060e001604052803373ffffffffffffffffffffffffffffffffffffffff1681526020018973ffffffffffffffffffffffffffffffffffffffff1681526020018873ffffffffffffffffffffffffffffffffffffffff1681526020018773ffffffffffffffffffffffffffffffffffffffff1681526020018667ffffffffffffffff1681526020018567ffffffffffffffff1681526020018467ffffffffffffffff168152509050806003600084815260200190815260200160002060008201518160000160006101000a81548173ffffffffffffffffffffffffffffffffffffffff021916908373ffffffffffffffffffffffffffffffffffffffff16021790555060208201518160010160006101000a81548173ffffffffffffffffffffffffffffffffffffffff021916908373ffffffffffffffffffffffffffffffffffffffff16021790555060408201518160020160006101000a81548173ffffffffffffffffffffffffffffffffffffffff021916908373ffffffffffffffffffffffffffffffffffffffff16021790555060608201518160030160006101000a81548173ffffffffffffffffffffffffffffffffffffffff021916908373ffffffffffffffffffffffffffffffffffffffff16021790555060808201518160030160146101000a81548167ffffffffffffffff021916908367ffffffffffffffff16021790555060a08201518160040160006101000a81548167ffffffffffffffff021916908367ffffffffffffffff16021790555060c08201518160040160086101000a81548167ffffffffffffffff021916908367ffffffffffffffff16021790555090505050610b15565b836003600083815260200190815260200160002060030160146101000a81548167ffffffffffffffff021916908367ffffffffffffffff160217905550826003600083815260200190815260200160002060040160006101000a81548167ffffffffffffffff021916908367ffffffffffffffff160217905550816003600083815260200190815260200160002060040160086101000a81548167ffffffffffffffff021916908367ffffffffffffffff1602179055505b8673ffffffffffffffffffffffffffffffffffffffff163373ffffffffffffffffffffffffffffffffffffffff16827f160bcdb242b6b3400162d90511ed5912a4a4f906a00a80e523c1bb10867e428a8989898989604051610b7b959493929190612902565b60405180910390a450505050505050565b7f000000000000000000000000000000000000000000000000000000000000000081565b610bb8612108565b73ffffffffffffffffffffffffffffffffffffffff16610bd6611a4b565b73ffffffffffffffffffffffffffffffffffffffff1614610c2c576040517f08c379a0000000000000000000000000000000000000000000000000000000008152600401610c23906129b2565b60405180910390fd5b8067ffffffffffffffff168267ffffffffffffffff1610610c865781816040517fe5277985000000000000000000000000000000000000000000000000000000008152600401610c7d929190612825565b60405180910390fd5b81600060146101000a81548167ffffffffffffffff021916908367ffffffffffffffff16021790555080600160006101000a81548167ffffffffffffffff021916908367ffffffffffffffff1602179055507fcdbc762ccbd384cdee07c2d0ac57883fa6bb2cd308895ed4417a0526c6baea0c8282604051610d09929190612825565b60405180910390a15050565b600082829050905060005b81811015610d5b57610d4a848483818110610d3e57610d3d6129d2565b5b90506020020135611a74565b80610d5490612a30565b9050610d20565b50505050565b610d69612108565b73ffffffffffffffffffffffffffffffffffffffff16610d87611a4b565b73ffffffffffffffffffffffffffffffffffffffff1614610ddd576040517f08c379a0000000000000000000000000000000000000000000000000000000008152600401610dd4906129b2565b60405180910390fd5b600073ffffffffffffffffffffffffffffffffffffffff168173ffffffffffffffffffffffffffffffffffffffff1603610e4e57806040517feb894b34000000000000000000000000000000000000000000000000000000008152600401610e459190612781565b60405180910390fd5b600260008273ffffffffffffffffffffffffffffffffffffffff1673ffffffffffffffffffffffffffffffffffffffff16815260200190815260200160002060009054906101000a900460ff16610f3b576001600260008373ffffffffffffffffffffffffffffffffffffffff1673ffffffffffffffffffffffffffffffffffffffff16815260200190815260200160002060006101000a81548160ff0219169083151502179055508073ffffffffffffffffffffffffffffffffffffffff167f3edff2b723512b7e98f0fb394d84a670f3a40eb2f2c51e9c00c58a3f04e1e4dd60405160405180910390a25b50565b600160009054906101000a900467ffffffffffffffff1681565b610f60612108565b73ffffffffffffffffffffffffffffffffffffffff16610f7e611a4b565b73ffffffffffffffffffffffffffffffffffffffff1614610fd4576040517f08c379a0000000000000000000000000000000000000000000000000000000008152600401610fcb906129b2565b60405180910390fd5b610fde6000612110565b565b6000610ff5610ff0858585611fab565b611246565b90509392505050565b600061100982611246565b90506000810361105057816040517fc160da3f00000000000000000000000000000000000000000000000000000000815260040161104791906127e1565b60405180910390fd5b600060036000848152602001908152602001600020905060008160010160009054906101000a900473ffffffffffffffffffffffffffffffffffffffff16905060008260020160009054906101000a900473ffffffffffffffffffffffffffffffffffffffff1690508073ffffffffffffffffffffffffffffffffffffffff1663fc888cb0836040518263ffffffff1660e01b81526004016110f2919061285d565b602060405180830381865afa15801561110f573d6000803e3d6000fd5b505050506040513d601f19601f8201168201806040525081019061113391906128a4565b61117457816040517f1d5f93fb00000000000000000000000000000000000000000000000000000000815260040161116b9190612781565b60405180910390fd5b8073ffffffffffffffffffffffffffffffffffffffff1663699018588460000160009054906101000a900473ffffffffffffffffffffffffffffffffffffffff1684876040518463ffffffff1660e01b81526004016111d593929190612a78565b600060405180830381600087803b1580156111ef57600080fd5b505af1158015611203573d6000803e3d6000fd5b50505050847fd9ed57b29272093f04d5d1de3484d5ef3819413dcccbfe2d364ead6ab58d4df68560405161123791906125eb565b60405180910390a25050505050565b600080600360008481526020019081526020016000209050600073ffffffffffffffffffffffffffffffffffffffff168160000160009054906101000a900473ffffffffffffffffffffffffffffffffffffffff1673ffffffffffffffffffffffffffffffffffffffff1614806112df5750428160030160149054906101000a900467ffffffffffffffff1667ffffffffffffffff1611155b806113d1575060008160030160009054906101000a900473ffffffffffffffffffffffffffffffffffffffff1673ffffffffffffffffffffffffffffffffffffffff1663dd62ed3e8360000160009054906101000a900473ffffffffffffffffffffffffffffffffffffffff168460020160009054906101000a900473ffffffffffffffffffffffffffffffffffffffff166040518363ffffffff1660e01b815260040161138e929190612aaf565b602060405180830381865afa1580156113ab573d6000803e3d6000fd5b505050506040513d601f19601f820116820180604052508101906113cf9190612b04565b145b8061149d575060008160030160009054906101000a900473ffffffffffffffffffffffffffffffffffffffff1673ffffffffffffffffffffffffffffffffffffffff166370a082318360000160009054906101000a900473ffffffffffffffffffffffffffffffffffffffff166040518263ffffffff1660e01b815260040161145a9190612781565b602060405180830381865afa158015611477573d6000803e3d6000fd5b505050506040513d601f19601f8201168201806040525081019061149b9190612b04565b145b8061156757508060020160009054906101000a900473ffffffffffffffffffffffffffffffffffffffff1673ffffffffffffffffffffffffffffffffffffffff1663fc888cb08260010160009054906101000a900473ffffffffffffffffffffffffffffffffffffffff166040518263ffffffff1660e01b8152600401611524919061285d565b602060405180830381865afa158015611541573d6000803e3d6000fd5b505050506040513d601f19601f8201168201806040525081019061156591906128a4565b155b156115765760009150506118be565b60007f000000000000000000000000000000000000000000000000000000000000000073ffffffffffffffffffffffffffffffffffffffff1663e8e7e2d18360010160009054906101000a900473ffffffffffffffffffffffffffffffffffffffff168460000160009054906101000a900473ffffffffffffffffffffffffffffffffffffffff166040518363ffffffff1660e01b815260040161161b929190612b31565b602060405180830381865afa158015611638573d6000803e3d6000fd5b505050506040513d601f19601f8201168201806040525081019061165c9190612b93565b9050600081600b0b12156118b75760008260010160009054906101000a900473ffffffffffffffffffffffffffffffffffffffff1673ffffffffffffffffffffffffffffffffffffffff166370a082318460000160009054906101000a900473ffffffffffffffffffffffffffffffffffffffff166040518263ffffffff1660e01b81526004016116ed9190612781565b602060405180830381865afa15801561170a573d6000803e3d6000fd5b505050506040513d601f19601f8201168201806040525081019061172e9190612b04565b90506000827fffffffffffffffffffffffffffffffffffffffffffffffffffffffffffffffff61175e9190612bc0565b6bffffffffffffffffffffffff16905060008060149054906101000a900467ffffffffffffffff1667ffffffffffffffff168560040160009054906101000a900467ffffffffffffffff1667ffffffffffffffff16106117d6578460040160009054906101000a900467ffffffffffffffff166117ee565b600060149054906101000a900467ffffffffffffffff165b90506000600160009054906101000a900467ffffffffffffffff1667ffffffffffffffff168660040160089054906101000a900467ffffffffffffffff1667ffffffffffffffff1610611859578560040160089054906101000a900467ffffffffffffffff16611871565b600160009054906101000a900467ffffffffffffffff165b90508167ffffffffffffffff16836118899190612caf565b84116118b2578067ffffffffffffffff16836118a59190612caf565b96505050505050506118be565b505050505b6000925050505b919050565b6118cb6121d4565b6118de6118d9858585611fab565b611d56565b90509392505050565b6118ef612108565b73ffffffffffffffffffffffffffffffffffffffff1661190d611a4b565b73ffffffffffffffffffffffffffffffffffffffff1614611963576040517f08c379a000000000000000000000000000000000000000000000000000000000815260040161195a906129b2565b60405180910390fd5b600260008273ffffffffffffffffffffffffffffffffffffffff1673ffffffffffffffffffffffffffffffffffffffff16815260200190815260200160002060009054906101000a900460ff1615611a4857600260008273ffffffffffffffffffffffffffffffffffffffff1673ffffffffffffffffffffffffffffffffffffffff16815260200190815260200160002060006101000a81549060ff02191690558073ffffffffffffffffffffffffffffffffffffffff167fcccfdaf06e384e4afcea4acf18f915e4cf10ccbebf3bd41dbdbf360388fa613860405160405180910390a25b50565b60008060009054906101000a900473ffffffffffffffffffffffffffffffffffffffff16905090565b600060036000838152602001908152602001600020905060008160000160009054906101000a900473ffffffffffffffffffffffffffffffffffffffff1690503373ffffffffffffffffffffffffffffffffffffffff168173ffffffffffffffffffffffffffffffffffffffff1614158015611b125750428260030160149054906101000a900467ffffffffffffffff1667ffffffffffffffff1610155b15611b565733816040517f536dd9ef000000000000000000000000000000000000000000000000000000008152600401611b4d929190612aaf565b60405180910390fd5b8160010160009054906101000a900473ffffffffffffffffffffffffffffffffffffffff1673ffffffffffffffffffffffffffffffffffffffff168260000160009054906101000a900473ffffffffffffffffffffffffffffffffffffffff1673ffffffffffffffffffffffffffffffffffffffff16847f435d6aa02bc57be393afe57c6498e59391018bbf9f6be723d2f94a0e0328ae4b8560020160009054906101000a900473ffffffffffffffffffffffffffffffffffffffff168660030160009054906101000a900473ffffffffffffffffffffffffffffffffffffffff16604051611c46929190612aaf565b60405180910390a460036000848152602001908152602001600020600080820160006101000a81549073ffffffffffffffffffffffffffffffffffffffff02191690556001820160006101000a81549073ffffffffffffffffffffffffffffffffffffffff02191690556002820160006101000a81549073ffffffffffffffffffffffffffffffffffffffff02191690556003820160006101000a81549073ffffffffffffffffffffffffffffffffffffffff02191690556003820160146101000a81549067ffffffffffffffff02191690556004820160006101000a81549067ffffffffffffffff02191690556004820160086101000a81549067ffffffffffffffff02191690555050505050565b611d5e6121d4565b600360008381526020019081526020016000206040518060e00160405290816000820160009054906101000a900473ffffffffffffffffffffffffffffffffffffffff1673ffffffffffffffffffffffffffffffffffffffff1673ffffffffffffffffffffffffffffffffffffffff1681526020016001820160009054906101000a900473ffffffffffffffffffffffffffffffffffffffff1673ffffffffffffffffffffffffffffffffffffffff1673ffffffffffffffffffffffffffffffffffffffff1681526020016002820160009054906101000a900473ffffffffffffffffffffffffffffffffffffffff1673ffffffffffffffffffffffffffffffffffffffff1673ffffffffffffffffffffffffffffffffffffffff1681526020016003820160009054906101000a900473ffffffffffffffffffffffffffffffffffffffff1673ffffffffffffffffffffffffffffffffffffffff1673ffffffffffffffffffffffffffffffffffffffff1681526020016003820160149054906101000a900467ffffffffffffffff1667ffffffffffffffff1667ffffffffffffffff1681526020016004820160009054906101000a900467ffffffffffffffff1667ffffffffffffffff1667ffffffffffffffff1681526020016004820160089054906101000a900467ffffffffffffffff1667ffffffffffffffff1667ffffffffffffffff16815250509050919050565b600060149054906101000a900467ffffffffffffffff1681565b60026020528060005260406000206000915054906101000a900460ff1681565b6000838383604051602001611fc293929190612d09565b6040516020818303038152906040528051906020012090509392505050565b611ff4611fef848484611fab565b611a74565b505050565b61200c612007848484611fab565b610ffe565b505050565b612019612108565b73ffffffffffffffffffffffffffffffffffffffff16612037611a4b565b73ffffffffffffffffffffffffffffffffffffffff161461208d576040517f08c379a0000000000000000000000000000000000000000000000000000000008152600401612084906129b2565b60405180910390fd5b600073ffffffffffffffffffffffffffffffffffffffff168173ffffffffffffffffffffffffffffffffffffffff16036120fc576040517f08c379a00000000000000000000000000000000000000000000000000000000081526004016120f390612db2565b60405180910390fd5b61210581612110565b50565b600033905090565b60008060009054906101000a900473ffffffffffffffffffffffffffffffffffffffff169050816000806101000a81548173ffffffffffffffffffffffffffffffffffffffff021916908373ffffffffffffffffffffffffffffffffffffffff1602179055508173ffffffffffffffffffffffffffffffffffffffff168173ffffffffffffffffffffffffffffffffffffffff167f8be0079c531659141344cd1fd0a4f28419497f9722a3daafe3b4186f6b6457e060405160405180910390a35050565b6040518060e00160405280600073ffffffffffffffffffffffffffffffffffffffff168152602001600073ffffffffffffffffffffffffffffffffffffffff168152602001600073ffffffffffffffffffffffffffffffffffffffff168152602001600073ffffffffffffffffffffffffffffffffffffffff168152602001600067ffffffffffffffff168152602001600067ffffffffffffffff168152602001600067ffffffffffffffff1681525090565b600080fd5b600080fd5b600073ffffffffffffffffffffffffffffffffffffffff82169050919050565b60006122bc82612291565b9050919050565b6122cc816122b1565b81146122d757600080fd5b50565b6000813590506122e9816122c3565b92915050565b600067ffffffffffffffff82169050919050565b61230c816122ef565b811461231757600080fd5b50565b60008135905061232981612303565b92915050565b60008060008060008060c0878903121561234c5761234b612287565b5b600061235a89828a016122da565b965050602061236b89828a016122da565b955050604061237c89828a016122da565b945050606061238d89828a0161231a565b935050608061239e89828a0161231a565b92505060a06123af89828a0161231a565b9150509295509295509295565b6000819050919050565b60006123e16123dc6123d784612291565b6123bc565b612291565b9050919050565b60006123f3826123c6565b9050919050565b6000612405826123e8565b9050919050565b612415816123fa565b82525050565b6000602082019050612430600083018461240c565b92915050565b6000806040838503121561244d5761244c612287565b5b600061245b8582860161231a565b925050602061246c8582860161231a565b9150509250929050565b600080fd5b600080fd5b600080fd5b60008083601f84011261249b5761249a612476565b5b8235905067ffffffffffffffff8111156124b8576124b761247b565b5b6020830191508360208202830111156124d4576124d3612480565b5b9250929050565b600080602083850312156124f2576124f1612287565b5b600083013567ffffffffffffffff8111156125105761250f61228c565b5b61251c85828601612485565b92509250509250929050565b60006020828403121561253e5761253d612287565b5b600061254c848285016122da565b91505092915050565b61255e816122ef565b82525050565b60006020820190506125796000830184612555565b92915050565b60008060006060848603121561259857612597612287565b5b60006125a6868287016122da565b93505060206125b7868287016122da565b92505060406125c8868287016122da565b9150509250925092565b6000819050919050565b6125e5816125d2565b82525050565b600060208201905061260060008301846125dc565b92915050565b6000819050919050565b61261981612606565b811461262457600080fd5b50565b60008135905061263681612610565b92915050565b60006020828403121561265257612651612287565b5b600061266084828501612627565b91505092915050565b612672816122b1565b82525050565b6000612683826123e8565b9050919050565b61269381612678565b82525050565b60006126a4826123e8565b9050919050565b6126b481612699565b82525050565b6126c3816122ef565b82525050565b60e0820160008201516126df6000850182612669565b5060208201516126f2602085018261268a565b50604082015161270560408501826126ab565b5060608201516127186060850182612669565b50608082015161272b60808501826126ba565b5060a082015161273e60a08501826126ba565b5060c082015161275160c08501826126ba565b50505050565b600060e08201905061276c60008301846126c9565b92915050565b61277b816122b1565b82525050565b60006020820190506127966000830184612772565b92915050565b60008115159050919050565b6127b18161279c565b82525050565b60006020820190506127cc60008301846127a8565b92915050565b6127db81612606565b82525050565b60006020820190506127f660008301846127d2565b92915050565b60006040820190506128116000830185612555565b61281e60208301846125dc565b9392505050565b600060408201905061283a6000830185612555565b6128476020830184612555565b9392505050565b61285781612678565b82525050565b6000602082019050612872600083018461284e565b92915050565b6128818161279c565b811461288c57600080fd5b50565b60008151905061289e81612878565b92915050565b6000602082840312156128ba576128b9612287565b5b60006128c88482850161288f565b91505092915050565b60006128ec6128e76128e2846122ef565b6123bc565b6125d2565b9050919050565b6128fc816128d1565b82525050565b600060a0820190506129176000830188612772565b6129246020830187612772565b61293160408301866128f3565b61293e60608301856128f3565b61294b60808301846128f3565b9695505050505050565b600082825260208201905092915050565b7f4f776e61626c653a2063616c6c6572206973206e6f7420746865206f776e6572600082015250565b600061299c602083612955565b91506129a782612966565b602082019050919050565b600060208201905081810360008301526129cb8161298f565b9050919050565b7f4e487b7100000000000000000000000000000000000000000000000000000000600052603260045260246000fd5b7f4e487b7100000000000000000000000000000000000000000000000000000000600052601160045260246000fd5b6000612a3b826125d2565b91507fffffffffffffffffffffffffffffffffffffffffffffffffffffffffffffffff8203612a6d57612a6c612a01565b5b600182019050919050565b6000606082019050612a8d6000830186612772565b612a9a602083018561284e565b612aa760408301846125dc565b949350505050565b6000604082019050612ac46000830185612772565b612ad16020830184612772565b9392505050565b612ae1816125d2565b8114612aec57600080fd5b50565b600081519050612afe81612ad8565b92915050565b600060208284031215612b1a57612b19612287565b5b6000612b2884828501612aef565b91505092915050565b6000604082019050612b46600083018561284e565b612b536020830184612772565b9392505050565b600081600b0b9050919050565b612b7081612b5a565b8114612b7b57600080fd5b50565b600081519050612b8d81612b67565b92915050565b600060208284031215612ba957612ba8612287565b5b6000612bb784828501612b7e565b91505092915050565b6000612bcb82612b5a565b9150612bd683612b5a565b9250826b7fffffffffffffffffffffff0482116000841360008413161615612c0157612c00612a01565b5b817fffffffffffffffffffffffffffffffffffffffff8000000000000000000000000583126000841260008413161615612c3e57612c3d612a01565b5b827fffffffffffffffffffffffffffffffffffffffff8000000000000000000000000582126000841360008412161615612c7b57612c7a612a01565b5b826b7fffffffffffffffffffffff0582126000841260008412161615612ca457612ca3612a01565b5b828202905092915050565b6000612cba826125d2565b9150612cc5836125d2565b9250817fffffffffffffffffffffffffffffffffffffffffffffffffffffffffffffffff0483118215151615612cfe57612cfd612a01565b5b828202905092915050565b6000606082019050612d1e6000830186612772565b612d2b6020830185612772565b612d386040830184612772565b949350505050565b7f4f776e61626c653a206e6577206f776e657220697320746865207a65726f206160008201527f6464726573730000000000000000000000000000000000000000000000000000602082015250565b6000612d9c602683612955565b9150612da782612d40565b604082019050919050565b60006020820190508181036000830152612dcb81612d8f565b905091905056fea264697066735822122069eff5baf3d151e17f8d11225e8b854b39047c6225b908e57f59a95acd1df93b64736f6c634300080d0033",
  "devdoc": {
    "author": "Harsh Prakash <0xharsh@proton.me>",
    "errors": {
      "InsufficientLimits(uint64,uint64)": [
        {
          "params": {
            "limitGiven": "Limit (upper/lower) given by the user.",
            "minLimit": "Minimum limit (upper/lower) expected."
          }
        }
      ],
      "InvalidExpirationTime(uint64,uint256)": [
        {
          "params": {
            "expirationTimeGiven": "Time given as expiration time by a user.",
            "timeNow": "Current time (block.timestamp)."
          }
        }
      ],
      "InvalidStrategy(address)": [
        {
          "params": {
            "strategy": "Address of the strategy contract."
          }
        }
      ],
      "TopUpNotRequired(bytes32)": [
        {
          "params": {
            "index": "Index id associated with the top up request."
          }
        }
      ],
      "UnauthorizedCaller(address,address)": [
        {
          "params": {
            "caller": "Address of the caller of the function.",
            "expectedCaller": "Address of the expected caller."
          }
        }
      ],
      "UnsupportedSuperToken(address)": [
        {
          "params": {
            "superToken": "Address of the supertoken which isn't supported."
          }
        }
      ],
      "WrongLimits(uint64,uint64)": [
        {
          "params": {
            "lowerLimit": "Limit (upper/lower) given by the user.",
            "upperLimit": "Minimum limit (upper/lower) expected."
          }
        }
      ]
    },
    "kind": "dev",
    "methods": {
      "addApprovedStrategy(address)": {
        "details": "IStrollManager.addApprovedStrategy implementation."
      },
      "checkTopUp(address,address,address)": {
        "details": "IStrollManager.checkTopUp implementation."
      },
      "checkTopUpByIndex(bytes32)": {
        "details": "IStrollManager.checkTopUpByIndex implementation."
      },
      "createTopUp(address,address,address,uint64,uint64,uint64)": {
        "details": "IStrollManager.createTopUp implementation."
      },
      "deleteBatch(bytes32[])": {
        "details": "IStrollManager.deleteBatch implementation."
      },
      "deleteTopUp(address,address,address)": {
        "details": "IStrollManager.deleteTopUp implementation."
      },
      "deleteTopUpByIndex(bytes32)": {
        "details": "IStrollManager.deleteTopUpByIndex implementation."
      },
      "getTopUp(address,address,address)": {
        "details": "IStrollManager.getTopUp implementation."
      },
      "getTopUpByIndex(bytes32)": {
        "details": "IStrollManager.getTopUpByIndex implementation."
      },
      "getTopUpIndex(address,address,address)": {
        "details": "IStrollManager.getTopUpIndex implementation."
      },
      "owner()": {
        "details": "Returns the address of the current owner."
      },
      "performTopUp(address,address,address)": {
        "details": "IStrollManager.performTopUp implementation."
      },
      "performTopUpByIndex(bytes32)": {
        "details": "IStrollManager.performTopUpByIndex implementation."
      },
      "removeApprovedStrategy(address)": {
        "details": "IStrollManager.removeApprovedStrategy implementation."
      },
      "renounceOwnership()": {
        "details": "Leaves the contract without owner. It will not be possible to call `onlyOwner` functions anymore. Can only be called by the current owner. NOTE: Renouncing ownership will leave the contract without an owner, thereby removing any functionality that is only available to the owner."
      },
      "setLimits(uint64,uint64)": {
        "details": "IStrollManager.setLimits implementation."
      },
      "transferOwnership(address)": {
        "details": "Transfers ownership of the contract to a new account (`newOwner`). Can only be called by the current owner."
      }
    },
    "stateVariables": {
      "approvedStrategies": {
        "details": "IStrollManager.approvedStrategies implementation."
      },
      "minLower": {
        "details": "IStrollManager.minLower implementation."
      },
      "minUpper": {
        "details": "IStrollManager.minUpper implementation."
      }
    },
    "title": "StrollManager",
    "version": 1
  },
  "userdoc": {
    "errors": {
      "InsufficientLimits(uint64,uint64)": [
        {
          "notice": "Custom error to indicate the limits given by a user are insufficient."
        }
      ],
      "InvalidExpirationTime(uint64,uint256)": [
        {
          "notice": "Custom error to indicate expiration time given is invalid."
        }
      ],
      "InvalidStrategy(address)": [
        {
          "notice": "Custom error to indicate addition/usage of invalid strategy."
        }
      ],
      "TopUpNotRequired(bytes32)": [
        {
          "notice": "Custom error to indicate top up is not required and the index id associated with that top-up."
        }
      ],
      "UnauthorizedCaller(address,address)": [
        {
          "notice": "Custom error to indicate caller of a function is unauthorized."
        }
      ],
      "UnsupportedSuperToken(address)": [
        {
          "notice": "Custom error to indicate that supertoken provided isn't supported."
        }
      ],
      "WrongLimits(uint64,uint64)": [
        {
          "notice": "Custom error to indicate that the limits are wrong (lower limit >= upper limit)."
        }
      ],
      "ZeroAddress()": [
        {
          "notice": "Custom error to indicate that null address has been passed."
        }
      ]
    },
    "kind": "user",
    "methods": {},
    "notice": "StrollManager is a contract that manages top ups for the Stroll protocol.",
    "version": 1
  },
  "storageLayout": {
    "storage": [
      {
        "astId": 7,
        "contract": "contracts/StrollManager.sol:StrollManager",
        "label": "_owner",
        "offset": 0,
        "slot": "0",
        "type": "t_address"
      },
      {
        "astId": 2839,
        "contract": "contracts/StrollManager.sol:StrollManager",
        "label": "minLower",
        "offset": 20,
        "slot": "0",
        "type": "t_uint64"
      },
      {
        "astId": 2843,
        "contract": "contracts/StrollManager.sol:StrollManager",
        "label": "minUpper",
        "offset": 0,
        "slot": "1",
        "type": "t_uint64"
      },
      {
        "astId": 2849,
        "contract": "contracts/StrollManager.sol:StrollManager",
        "label": "approvedStrategies",
        "offset": 0,
        "slot": "2",
        "type": "t_mapping(t_address,t_bool)"
      },
      {
        "astId": 2854,
        "contract": "contracts/StrollManager.sol:StrollManager",
        "label": "topUps",
        "offset": 0,
        "slot": "3",
        "type": "t_mapping(t_bytes32,t_struct(TopUp)3877_storage)"
      }
    ],
    "types": {
      "t_address": {
        "encoding": "inplace",
        "label": "address",
        "numberOfBytes": "20"
      },
      "t_bool": {
        "encoding": "inplace",
        "label": "bool",
        "numberOfBytes": "1"
      },
      "t_bytes32": {
        "encoding": "inplace",
        "label": "bytes32",
        "numberOfBytes": "32"
      },
      "t_contract(IStrategy)3759": {
        "encoding": "inplace",
        "label": "contract IStrategy",
        "numberOfBytes": "20"
      },
      "t_contract(ISuperToken)1872": {
        "encoding": "inplace",
        "label": "contract ISuperToken",
        "numberOfBytes": "20"
      },
      "t_mapping(t_address,t_bool)": {
        "encoding": "mapping",
        "key": "t_address",
        "label": "mapping(address => bool)",
        "numberOfBytes": "32",
        "value": "t_bool"
      },
      "t_mapping(t_bytes32,t_struct(TopUp)3877_storage)": {
        "encoding": "mapping",
        "key": "t_bytes32",
        "label": "mapping(bytes32 => struct IStrollManager.TopUp)",
        "numberOfBytes": "32",
        "value": "t_struct(TopUp)3877_storage"
      },
      "t_struct(TopUp)3877_storage": {
        "encoding": "inplace",
        "label": "struct IStrollManager.TopUp",
        "members": [
          {
            "astId": 3862,
            "contract": "contracts/StrollManager.sol:StrollManager",
            "label": "user",
            "offset": 0,
            "slot": "0",
            "type": "t_address"
          },
          {
            "astId": 3865,
            "contract": "contracts/StrollManager.sol:StrollManager",
            "label": "superToken",
            "offset": 0,
            "slot": "1",
            "type": "t_contract(ISuperToken)1872"
          },
          {
            "astId": 3868,
            "contract": "contracts/StrollManager.sol:StrollManager",
            "label": "strategy",
            "offset": 0,
            "slot": "2",
            "type": "t_contract(IStrategy)3759"
          },
          {
            "astId": 3870,
            "contract": "contracts/StrollManager.sol:StrollManager",
            "label": "liquidityToken",
            "offset": 0,
            "slot": "3",
            "type": "t_address"
          },
          {
            "astId": 3872,
            "contract": "contracts/StrollManager.sol:StrollManager",
            "label": "expiry",
            "offset": 20,
            "slot": "3",
            "type": "t_uint64"
          },
          {
            "astId": 3874,
            "contract": "contracts/StrollManager.sol:StrollManager",
            "label": "lowerLimit",
            "offset": 0,
            "slot": "4",
            "type": "t_uint64"
          },
          {
            "astId": 3876,
            "contract": "contracts/StrollManager.sol:StrollManager",
            "label": "upperLimit",
            "offset": 8,
            "slot": "4",
            "type": "t_uint64"
          }
        ],
        "numberOfBytes": "160"
      },
      "t_uint64": {
        "encoding": "inplace",
        "label": "uint64",
        "numberOfBytes": "8"
      }
    }
  }
}