{
  "address": "0x9C7F871e307bE3113646Ac0e1A28B0003dA5441b",
  "abi": [
    {
      "inputs": [
        {
          "internalType": "address",
          "name": "_icfa",
          "type": "address"
        },
        {
          "internalType": "uint64",
          "name": "_minLower",
          "type": "uint64"
        },
        {
          "internalType": "uint64",
          "name": "_minUpper",
          "type": "uint64"
        }
      ],
      "stateMutability": "nonpayable",
      "type": "constructor"
    },
    {
      "anonymous": false,
      "inputs": [
        {
          "indexed": true,
          "internalType": "address",
          "name": "previousOwner",
          "type": "address"
        },
        {
          "indexed": true,
          "internalType": "address",
          "name": "newOwner",
          "type": "address"
        }
      ],
      "name": "OwnershipTransferred",
      "type": "event"
    },
    {
      "anonymous": false,
      "inputs": [
        {
          "indexed": true,
          "internalType": "bytes32",
          "name": "id",
          "type": "bytes32"
        },
        {
          "indexed": false,
          "internalType": "uint256",
          "name": "topUpAmount",
          "type": "uint256"
        }
      ],
      "name": "PerformedTopUp",
      "type": "event"
    },
    {
      "anonymous": false,
      "inputs": [
        {
          "indexed": true,
          "internalType": "bytes32",
          "name": "id",
          "type": "bytes32"
        },
        {
          "indexed": true,
          "internalType": "address",
          "name": "user",
          "type": "address"
        },
        {
          "indexed": true,
          "internalType": "address",
          "name": "superToken",
          "type": "address"
        },
        {
          "indexed": false,
          "internalType": "address",
          "name": "strategy",
          "type": "address"
        },
        {
          "indexed": false,
          "internalType": "address",
          "name": "liquidityToken",
          "type": "address"
        },
        {
          "indexed": false,
          "internalType": "uint256",
          "name": "time",
          "type": "uint256"
        },
        {
          "indexed": false,
          "internalType": "uint256",
          "name": "lowerLimit",
          "type": "uint256"
        },
        {
          "indexed": false,
          "internalType": "uint256",
          "name": "upperLimit",
          "type": "uint256"
        }
      ],
      "name": "TopUpCreated",
      "type": "event"
    },
    {
      "anonymous": false,
      "inputs": [
        {
          "indexed": true,
          "internalType": "bytes32",
          "name": "id",
          "type": "bytes32"
        },
        {
          "indexed": true,
          "internalType": "address",
          "name": "user",
          "type": "address"
        },
        {
          "indexed": true,
          "internalType": "address",
          "name": "superToken",
          "type": "address"
        },
        {
          "indexed": false,
          "internalType": "address",
          "name": "strategy",
          "type": "address"
        },
        {
          "indexed": false,
          "internalType": "address",
          "name": "liquidityToken",
          "type": "address"
        }
      ],
      "name": "TopUpDeleted",
      "type": "event"
    },
    {
      "inputs": [],
      "name": "CFA_V1",
      "outputs": [
        {
          "internalType": "contract IConstantFlowAgreementV1",
          "name": "",
          "type": "address"
        }
      ],
      "stateMutability": "view",
      "type": "function"
    },
    {
      "inputs": [
        {
          "internalType": "address",
          "name": "_user",
          "type": "address"
        },
        {
          "internalType": "address",
          "name": "_superToken",
          "type": "address"
        },
        {
          "internalType": "address",
          "name": "_liquidityToken",
          "type": "address"
        }
      ],
      "name": "checkTopUp",
      "outputs": [
        {
          "internalType": "uint256",
          "name": "",
          "type": "uint256"
        }
      ],
      "stateMutability": "view",
      "type": "function"
    },
    {
      "inputs": [
        {
          "internalType": "bytes32",
          "name": "_index",
          "type": "bytes32"
        }
      ],
      "name": "checkTopUpByIndex",
      "outputs": [
        {
          "internalType": "uint256",
          "name": "amount",
          "type": "uint256"
        }
      ],
      "stateMutability": "view",
      "type": "function"
    },
    {
      "inputs": [
        {
          "internalType": "address",
          "name": "_superToken",
          "type": "address"
        },
        {
          "internalType": "address",
          "name": "_strategy",
          "type": "address"
        },
        {
          "internalType": "address",
          "name": "_liquidityToken",
          "type": "address"
        },
        {
          "internalType": "uint64",
          "name": "_expiry",
          "type": "uint64"
        },
        {
          "internalType": "uint64",
          "name": "_lowerLimit",
          "type": "uint64"
        },
        {
          "internalType": "uint64",
          "name": "_upperLimit",
          "type": "uint64"
        }
      ],
      "name": "createTopUp",
      "outputs": [],
      "stateMutability": "nonpayable",
      "type": "function"
    },
    {
      "inputs": [
        {
          "internalType": "bytes32[]",
          "name": "_indices",
          "type": "bytes32[]"
        }
      ],
      "name": "deleteBatch",
      "outputs": [],
      "stateMutability": "nonpayable",
      "type": "function"
    },
    {
      "inputs": [
        {
          "internalType": "address",
          "name": "_user",
          "type": "address"
        },
        {
          "internalType": "address",
          "name": "_superToken",
          "type": "address"
        },
        {
          "internalType": "address",
          "name": "_liquidityToken",
          "type": "address"
        }
      ],
      "name": "deleteTopUp",
      "outputs": [],
      "stateMutability": "nonpayable",
      "type": "function"
    },
    {
      "inputs": [
        {
          "internalType": "bytes32",
          "name": "_index",
          "type": "bytes32"
        }
      ],
      "name": "deleteTopUpByIndex",
      "outputs": [],
      "stateMutability": "nonpayable",
      "type": "function"
    },
    {
      "inputs": [
        {
          "internalType": "address",
          "name": "_user",
          "type": "address"
        },
        {
          "internalType": "address",
          "name": "_superToken",
          "type": "address"
        },
        {
          "internalType": "address",
          "name": "_liquidityToken",
          "type": "address"
        }
      ],
      "name": "getTopUp",
      "outputs": [
        {
          "internalType": "address",
          "name": "",
          "type": "address"
        },
        {
          "internalType": "contract ISuperToken",
          "name": "",
          "type": "address"
        },
        {
          "internalType": "contract IStrategy",
          "name": "",
          "type": "address"
        },
        {
          "internalType": "address",
          "name": "",
          "type": "address"
        },
        {
          "internalType": "uint64",
          "name": "",
          "type": "uint64"
        },
        {
          "internalType": "uint64",
          "name": "",
          "type": "uint64"
        },
        {
          "internalType": "uint64",
          "name": "",
          "type": "uint64"
        }
      ],
      "stateMutability": "view",
      "type": "function"
    },
    {
      "inputs": [
        {
          "internalType": "bytes32",
          "name": "_index",
          "type": "bytes32"
        }
      ],
      "name": "getTopUpByIndex",
      "outputs": [
        {
          "internalType": "address",
          "name": "",
          "type": "address"
        },
        {
          "internalType": "contract ISuperToken",
          "name": "",
          "type": "address"
        },
        {
          "internalType": "contract IStrategy",
          "name": "",
          "type": "address"
        },
        {
          "internalType": "address",
          "name": "",
          "type": "address"
        },
        {
          "internalType": "uint64",
          "name": "",
          "type": "uint64"
        },
        {
          "internalType": "uint64",
          "name": "",
          "type": "uint64"
        },
        {
          "internalType": "uint64",
          "name": "",
          "type": "uint64"
        }
      ],
      "stateMutability": "view",
      "type": "function"
    },
    {
      "inputs": [
        {
          "internalType": "address",
          "name": "_user",
          "type": "address"
        },
        {
          "internalType": "address",
          "name": "_superToken",
          "type": "address"
        },
        {
          "internalType": "address",
          "name": "_liquidityToken",
          "type": "address"
        }
      ],
      "name": "getTopUpIndex",
      "outputs": [
        {
          "internalType": "bytes32",
          "name": "",
          "type": "bytes32"
        }
      ],
      "stateMutability": "pure",
      "type": "function"
    },
    {
      "inputs": [],
      "name": "minLower",
      "outputs": [
        {
          "internalType": "uint64",
          "name": "",
          "type": "uint64"
        }
      ],
      "stateMutability": "view",
      "type": "function"
    },
    {
      "inputs": [],
      "name": "minUpper",
      "outputs": [
        {
          "internalType": "uint64",
          "name": "",
          "type": "uint64"
        }
      ],
      "stateMutability": "view",
      "type": "function"
    },
    {
      "inputs": [],
      "name": "owner",
      "outputs": [
        {
          "internalType": "address",
          "name": "",
          "type": "address"
        }
      ],
      "stateMutability": "view",
      "type": "function"
    },
    {
      "inputs": [
        {
          "internalType": "address",
          "name": "_user",
          "type": "address"
        },
        {
          "internalType": "address",
          "name": "_superToken",
          "type": "address"
        },
        {
          "internalType": "address",
          "name": "_liquidityToken",
          "type": "address"
        }
      ],
      "name": "performTopUp",
      "outputs": [],
      "stateMutability": "nonpayable",
      "type": "function"
    },
    {
      "inputs": [
        {
          "internalType": "bytes32",
          "name": "_index",
          "type": "bytes32"
        }
      ],
      "name": "performTopUpByIndex",
      "outputs": [],
      "stateMutability": "nonpayable",
      "type": "function"
    },
    {
      "inputs": [],
      "name": "renounceOwnership",
      "outputs": [],
      "stateMutability": "nonpayable",
      "type": "function"
    },
    {
      "inputs": [
        {
          "internalType": "address",
          "name": "newOwner",
          "type": "address"
        }
      ],
      "name": "transferOwnership",
      "outputs": [],
      "stateMutability": "nonpayable",
      "type": "function"
    }
  ],
  "transactionHash": "0x37e2c4502c06b1bee934e229b7585781d09f0a0bd65e20d69e1215fa74b7f4c9",
  "args": [
    "0xF4C5310E51F6079F601a5fb7120bC72a70b96e2A",
    43200,
    172800
  ],
  "numDeployments": 1,
  "solcInputHash": "56841a10732424061110d653b579a018",
  "bytecode": "0x60a06040523480156200001157600080fd5b5060405162001512380380620015128339810160408190526200003491620000ff565b6200003f3362000092565b60609290921b6001600160601b03191660805260008054600160a01b600160e01b031916600160a01b6001600160401b0393841602179055600180546001600160401b0319169190921617905562000154565b600080546001600160a01b038381166001600160a01b0319831681178455604051919092169283917f8be0079c531659141344cd1fd0a4f28419497f9722a3daafe3b4186f6b6457e09190a35050565b80516001600160401b0381168114620000fa57600080fd5b919050565b60008060006060848603121562000114578283fd5b83516001600160a01b03811681146200012b578384fd5b92506200013b60208501620000e2565b91506200014b60408501620000e2565b90509250925092565b60805160601c6113986200017a6000396000818161012a0152610a3a01526113986000f3fe608060405234801561001057600080fd5b506004361061010b5760003560e01c80638b80f351116100a2578063a7052e6b11610071578063a7052e6b14610294578063f11665c9146102ae578063f2556da9146102c1578063f29730cf146102d4578063f2fde38b146102e757600080fd5b80638b80f351146101f65780638da5cb5b1461025d578063947dd6451461026e5780639aed5c511461028157600080fd5b8063715018a6116100de578063715018a6146101a757806377a80e47146101af578063854ba6d0146101d057806388882af2146101e357600080fd5b80633aa4e590146101105780633db29ed81461012557806347cda6911461016957806359b830be1461017c575b600080fd5b61012361011e366004611144565b6102fa565b005b61014c7f000000000000000000000000000000000000000000000000000000000000000081565b6040516001600160a01b0390911681526020015b60405180910390f35b6101236101773660046111b7565b6105f5565b60015461018f906001600160401b031681565b6040516001600160401b039091168152602001610160565b610123610646565b6101c26101bd366004611102565b6106ac565b604051908152602001610160565b6101236101de366004611226565b6106ce565b6101c26101f1366004611226565b610842565b610209610204366004611102565b610bb5565b604080516001600160a01b0398891681529688166020880152948716948601949094529190941660608401526001600160401b039384166080840152831660a08301529190911660c082015260e001610160565b6000546001600160a01b031661014c565b61012361027c366004611226565b610bf3565b61020961028f366004611226565b610ddd565b60005461018f90600160a01b90046001600160401b031681565b6101c26102bc366004611102565b610e76565b6101236102cf366004611102565b610ec1565b6101236102e2366004611102565b610f7b565b6101236102f53660046110e1565b610f93565b6001600160a01b0386161580159061031a57506001600160a01b03851615155b801561032e57506001600160a01b03841615155b61036e5760405162461bcd60e51b815260206004820152600c60248201526b4e756c6c204164647265737360a01b60448201526064015b60405180910390fd5b42836001600160401b0316116103b55760405162461bcd60e51b815260206004820152600c60248201526b496e76616c69642074696d6560a01b6044820152606401610365565b6000546001600160401b03600160a01b909104811690831610156104125760405162461bcd60e51b8152602060048201526014602482015273125b98dc99585cd9481b1bddd95c881b1a5b5a5d60621b6044820152606401610365565b6001546001600160401b0390811690821610156104685760405162461bcd60e51b8152602060048201526014602482015273125b98dc99585cd9481d5c1c195c881b1a5b5a5d60621b6044820152606401610365565b6000610475338887610e76565b6040805160e081018252338082526001600160a01b038b811660208085018281528d84168688019081528d8516606088019081526001600160401b03808f1660808a019081528e821660a08b019081528e831660c08c0190815260008e81526002988990528d90208c518154908c166001600160a01b03199182161782559751600182018054918d16918a1691909117905595519786018054988b169890971697909717909555915160038401805493518316600160a01b026001600160e01b031990941691909816179190911790955590516004909101805492518516600160401b026001600160801b03199093169190941617179091559251939450909284907f160bcdb242b6b3400162d90511ed5912a4a4f906a00a80e523c1bb10867e428a906105e3908c908c908c908c908c906001600160a01b0395861681529390941660208401526001600160401b0391821660408401528116606083015291909116608082015260a00190565b60405180910390a45050505050505050565b60005b818110156106415761062f83838381811061062357634e487b7160e01b600052603260045260246000fd5b90506020020135610bf3565b8061063981611331565b9150506105f8565b505050565b6000546001600160a01b031633146106a05760405162461bcd60e51b815260206004820181905260248201527f4f776e61626c653a2063616c6c6572206973206e6f7420746865206f776e65726044820152606401610365565b6106aa600061105e565b565b6000806106ba858585610e76565b90506106c581610842565b95945050505050565b60006106d982610842565b9050600081116107205760405162461bcd60e51b8152602060048201526012602482015271151bdc155c0818da1958dac819985a5b195960721b6044820152606401610365565b600082815260026020818152604092839020835160e08101855281546001600160a01b039081168083526001840154821694830185905294830154811682870181905260038401549182166060840152600160a01b9091046001600160401b03908116608084015260049384015480821660a0850152600160401b90041660c08301529451630d32030b60e31b815291820193909352602481019190915260448101849052909190636990185890606401600060405180830381600087803b1580156107eb57600080fd5b505af11580156107ff573d6000803e3d6000fd5b50505050827fd9ed57b29272093f04d5d1de3484d5ef3819413dcccbfe2d364ead6ab58d4df68360405161083591815260200190565b60405180910390a2505050565b6000818152600260208181526040808420815160e08101835281546001600160a01b03908116808352600184015482169583019590955294820154851692810192909252600381015493841660608301526001600160401b03600160a01b909404841660808301526004015480841660a0830152600160401b900490921660c083015215806108de57504281608001516001600160401b031611155b806109735750606081015181516040808401519051636eb1769f60e11b81526001600160a01b039283166004820152908216602482015291169063dd62ed3e9060440160206040518083038186803b15801561093957600080fd5b505afa15801561094d573d6000803e3d6000fd5b505050506040513d601f19601f82011682018060405250810190610971919061125f565b155b806109fb5750606081015181516040516370a0823160e01b81526001600160a01b0391821660048201529116906370a082319060240160206040518083038186803b1580156109c157600080fd5b505afa1580156109d5573d6000803e3d6000fd5b505050506040513d601f19601f820116820180604052508101906109f9919061125f565b155b15610a095750600092915050565b6020810151815160405163e8e7e2d160e01b81526001600160a01b03928316600482015290821660248201526000917f0000000000000000000000000000000000000000000000000000000000000000169063e8e7e2d19060440160206040518083038186803b158015610a7c57600080fd5b505afa158015610a90573d6000803e3d6000fd5b505050506040513d601f19601f82011682018060405250810190610ab4919061123e565b9050600081600b0b1215610bab57602082015182516040516370a0823160e01b81526001600160a01b03918216600482015260009291909116906370a082319060240160206040518083038186803b158015610b0f57600080fd5b505afa158015610b23573d6000803e3d6000fd5b505050506040513d601f19601f82011682018060405250810190610b47919061125f565b90506000610b5783600019611277565b6bffffffffffffffffffffffff1690508360a001516001600160401b031681610b809190611312565b8211610ba85760c0840151610b9e906001600160401b031682611312565b9695505050505050565b50505b5060009392505050565b600080600080600080600080610bcc8b8b8b610e76565b9050610bd781610ddd565b9750975097509750975097509750509397509397509397909450565b600081815260026020818152604092839020835160e08101855281546001600160a01b039081168252600183015481169382019390935292810154821693830193909352600383015490811660608301526001600160401b03600160a01b90910481166080830181905260049093015480821660a0840152600160401b90041660c082015290610cbc5760405162461bcd60e51b8152602060048201526014602482015273151bdc155c08191bd95cc81b9bdd08195e1a5cdd60621b6044820152606401610365565b80516001600160a01b0316331480610ce057504281608001516001600160401b0316105b610d215760405162461bcd60e51b8152602060048201526012602482015271043616e27742064656c65746520546f7055760741b6044820152606401610365565b60008281526002602081815260409283902080546001600160a01b031990811682556001820180548216905592810180549093169092556003820180546001600160e01b0319169055600490910180546001600160801b031916905582810151835184840151606086015185516001600160a01b039283168152908216948101949094529182169391169185917f435d6aa02bc57be393afe57c6498e59391018bbf9f6be723d2f94a0e0328ae4b910160405180910390a45050565b600090815260026020818152604092839020835160e08101855281546001600160a01b03908116808352600184015482169483018590529483015481169582018690526003830154908116606083018190526001600160401b03600160a01b90920482166080840181905260049094015480831660a08501819052600160401b90910490921660c0909301839052949693959493909190565b604080516001600160a01b0380861660208301528085169282019290925290821660608201526000906080016040516020818303038152906040528051906020012090509392505050565b6001600160a01b038316610f0f5760405162461bcd60e51b81526020600482015260156024820152740c081059191c995cdcc81b9bdd08185b1b1bddd959605a1b6044820152606401610365565b6001600160a01b038216610f5d5760405162461bcd60e51b81526020600482015260156024820152740c081059191c995cdcc81b9bdd08185b1b1bddd959605a1b6044820152606401610365565b6000610f6a848484610e76565b9050610f7581610bf3565b50505050565b6000610f88848484610e76565b9050610f75816106ce565b6000546001600160a01b03163314610fed5760405162461bcd60e51b815260206004820181905260248201527f4f776e61626c653a2063616c6c6572206973206e6f7420746865206f776e65726044820152606401610365565b6001600160a01b0381166110525760405162461bcd60e51b815260206004820152602660248201527f4f776e61626c653a206e6577206f776e657220697320746865207a65726f206160448201526564647265737360d01b6064820152608401610365565b61105b8161105e565b50565b600080546001600160a01b038381166001600160a01b0319831681178455604051919092169283917f8be0079c531659141344cd1fd0a4f28419497f9722a3daafe3b4186f6b6457e09190a35050565b80356001600160a01b03811681146110c557600080fd5b919050565b80356001600160401b03811681146110c557600080fd5b6000602082840312156110f2578081fd5b6110fb826110ae565b9392505050565b600080600060608486031215611116578182fd5b61111f846110ae565b925061112d602085016110ae565b915061113b604085016110ae565b90509250925092565b60008060008060008060c0878903121561115c578182fd5b611165876110ae565b9550611173602088016110ae565b9450611181604088016110ae565b935061118f606088016110ca565b925061119d608088016110ca565b91506111ab60a088016110ca565b90509295509295509295565b600080602083850312156111c9578182fd5b82356001600160401b03808211156111df578384fd5b818501915085601f8301126111f2578384fd5b813581811115611200578485fd5b8660208260051b8501011115611214578485fd5b60209290920196919550909350505050565b600060208284031215611237578081fd5b5035919050565b60006020828403121561124f578081fd5b815180600b0b81146110fb578182fd5b600060208284031215611270578081fd5b5051919050565b600081600b0b83600b0b6b7fffffffffffffffffffffff838213848413838304851182821616156112aa576112aa61134c565b6b7fffffffffffffffffffffff19868512828116878305871216156112d1576112d161134c565b8787129250858205871284841616156112ec576112ec61134c565b858505871281841616156113025761130261134c565b5050509290910295945050505050565b600081600019048311821515161561132c5761132c61134c565b500290565b60006000198214156113455761134561134c565b5060010190565b634e487b7160e01b600052601160045260246000fdfea26469706673582212204b8a657cd77bc1265162e6855ecc0f901b1b5bf61b6152569a702016895a725b64736f6c63430008040033",
  "devdoc": {
    "kind": "dev",
    "methods": {
      "owner()": {
        "details": "Returns the address of the current owner."
      },
      "renounceOwnership()": {
        "details": "Leaves the contract without owner. It will not be possible to call `onlyOwner` functions anymore. Can only be called by the current owner. NOTE: Renouncing ownership will leave the contract without an owner, thereby removing any functionality that is only available to the owner."
      },
      "transferOwnership(address)": {
        "details": "Transfers ownership of the contract to a new account (`newOwner`). Can only be called by the current owner."
      }
    },
    "version": 1
  },
  "userdoc": {
    "kind": "user",
    "methods": {},
    "version": 1
  },
  "storageLayout": {
    "storage": [
      {
        "astId": 7,
        "contract": "contracts/StrollManagerTestnet.sol:StrollManagerTestnet",
        "label": "_owner",
        "offset": 0,
        "slot": "0",
        "type": "t_address"
      },
      {
        "astId": 3756,
        "contract": "contracts/StrollManagerTestnet.sol:StrollManagerTestnet",
        "label": "minLower",
        "offset": 20,
        "slot": "0",
        "type": "t_uint64"
      },
      {
        "astId": 3758,
        "contract": "contracts/StrollManagerTestnet.sol:StrollManagerTestnet",
        "label": "minUpper",
        "offset": 0,
        "slot": "1",
        "type": "t_uint64"
      },
      {
        "astId": 3763,
        "contract": "contracts/StrollManagerTestnet.sol:StrollManagerTestnet",
        "label": "topUps",
        "offset": 0,
        "slot": "2",
        "type": "t_mapping(t_bytes32,t_struct(TopUp)3754_storage)"
      }
    ],
    "types": {
      "t_address": {
        "encoding": "inplace",
        "label": "address",
        "numberOfBytes": "20"
      },
      "t_bytes32": {
        "encoding": "inplace",
        "label": "bytes32",
        "numberOfBytes": "32"
      },
      "t_contract(IStrategy)4409": {
        "encoding": "inplace",
        "label": "contract IStrategy",
        "numberOfBytes": "20"
      },
      "t_contract(ISuperToken)1872": {
        "encoding": "inplace",
        "label": "contract ISuperToken",
        "numberOfBytes": "20"
      },
      "t_mapping(t_bytes32,t_struct(TopUp)3754_storage)": {
        "encoding": "mapping",
        "key": "t_bytes32",
        "label": "mapping(bytes32 => struct StrollManagerTestnet.TopUp)",
        "numberOfBytes": "32",
        "value": "t_struct(TopUp)3754_storage"
      },
      "t_struct(TopUp)3754_storage": {
        "encoding": "inplace",
        "label": "struct StrollManagerTestnet.TopUp",
        "members": [
          {
            "astId": 3739,
            "contract": "contracts/StrollManagerTestnet.sol:StrollManagerTestnet",
            "label": "user",
            "offset": 0,
            "slot": "0",
            "type": "t_address"
          },
          {
            "astId": 3742,
            "contract": "contracts/StrollManagerTestnet.sol:StrollManagerTestnet",
            "label": "superToken",
            "offset": 0,
            "slot": "1",
            "type": "t_contract(ISuperToken)1872"
          },
          {
            "astId": 3745,
            "contract": "contracts/StrollManagerTestnet.sol:StrollManagerTestnet",
            "label": "strategy",
            "offset": 0,
            "slot": "2",
            "type": "t_contract(IStrategy)4409"
          },
          {
            "astId": 3747,
            "contract": "contracts/StrollManagerTestnet.sol:StrollManagerTestnet",
            "label": "liquidityToken",
            "offset": 0,
            "slot": "3",
            "type": "t_address"
          },
          {
            "astId": 3749,
            "contract": "contracts/StrollManagerTestnet.sol:StrollManagerTestnet",
            "label": "expiry",
            "offset": 20,
            "slot": "3",
            "type": "t_uint64"
          },
          {
            "astId": 3751,
            "contract": "contracts/StrollManagerTestnet.sol:StrollManagerTestnet",
            "label": "lowerLimit",
            "offset": 0,
            "slot": "4",
            "type": "t_uint64"
          },
          {
            "astId": 3753,
            "contract": "contracts/StrollManagerTestnet.sol:StrollManagerTestnet",
            "label": "upperLimit",
            "offset": 8,
            "slot": "4",
            "type": "t_uint64"
          }
        ],
        "numberOfBytes": "160"
      },
      "t_uint64": {
        "encoding": "inplace",
        "label": "uint64",
        "numberOfBytes": "8"
      }
    }
  }
}