{
  "address": "0xcF80141dA5BbFcD224a1817a2b0c3Cb04f55f91A",
  "abi": [
    {
      "inputs": [
        {
          "internalType": "address",
          "name": "_icfa",
          "type": "address"
        },
        {
          "internalType": "uint64",
          "name": "_minLower",
          "type": "uint64"
        },
        {
          "internalType": "uint64",
          "name": "_minUpper",
          "type": "uint64"
        }
      ],
      "stateMutability": "nonpayable",
      "type": "constructor"
    },
    {
      "anonymous": false,
      "inputs": [
        {
          "indexed": true,
          "internalType": "address",
          "name": "strategy",
          "type": "address"
        }
      ],
      "name": "AddedApprovedStrategy",
      "type": "event"
    },
    {
      "anonymous": false,
      "inputs": [
        {
          "indexed": true,
          "internalType": "address",
          "name": "previousOwner",
          "type": "address"
        },
        {
          "indexed": true,
          "internalType": "address",
          "name": "newOwner",
          "type": "address"
        }
      ],
      "name": "OwnershipTransferred",
      "type": "event"
    },
    {
      "anonymous": false,
      "inputs": [
        {
          "indexed": true,
          "internalType": "bytes32",
          "name": "id",
          "type": "bytes32"
        },
        {
          "indexed": false,
          "internalType": "uint256",
          "name": "topUpAmount",
          "type": "uint256"
        }
      ],
      "name": "PerformedTopUp",
      "type": "event"
    },
    {
      "anonymous": false,
      "inputs": [
        {
          "indexed": true,
          "internalType": "address",
          "name": "strategy",
          "type": "address"
        }
      ],
      "name": "RemovedApprovedStrategy",
      "type": "event"
    },
    {
      "anonymous": false,
      "inputs": [
        {
          "indexed": true,
          "internalType": "bytes32",
          "name": "id",
          "type": "bytes32"
        },
        {
          "indexed": true,
          "internalType": "address",
          "name": "user",
          "type": "address"
        },
        {
          "indexed": true,
          "internalType": "address",
          "name": "superToken",
          "type": "address"
        },
        {
          "indexed": false,
          "internalType": "address",
          "name": "strategy",
          "type": "address"
        },
        {
          "indexed": false,
          "internalType": "address",
          "name": "liquidityToken",
          "type": "address"
        },
        {
          "indexed": false,
          "internalType": "uint256",
          "name": "expiry",
          "type": "uint256"
        },
        {
          "indexed": false,
          "internalType": "uint256",
          "name": "lowerLimit",
          "type": "uint256"
        },
        {
          "indexed": false,
          "internalType": "uint256",
          "name": "upperLimit",
          "type": "uint256"
        }
      ],
      "name": "TopUpCreated",
      "type": "event"
    },
    {
      "anonymous": false,
      "inputs": [
        {
          "indexed": true,
          "internalType": "bytes32",
          "name": "id",
          "type": "bytes32"
        },
        {
          "indexed": true,
          "internalType": "address",
          "name": "user",
          "type": "address"
        },
        {
          "indexed": true,
          "internalType": "address",
          "name": "superToken",
          "type": "address"
        },
        {
          "indexed": false,
          "internalType": "address",
          "name": "strategy",
          "type": "address"
        },
        {
          "indexed": false,
          "internalType": "address",
          "name": "liquidityToken",
          "type": "address"
        }
      ],
      "name": "TopUpDeleted",
      "type": "event"
    },
    {
      "inputs": [],
      "name": "CFA_V1",
      "outputs": [
        {
          "internalType": "contract IConstantFlowAgreementV1",
          "name": "",
          "type": "address"
        }
      ],
      "stateMutability": "view",
      "type": "function"
    },
    {
      "inputs": [
        {
          "internalType": "address",
          "name": "strategy",
          "type": "address"
        }
      ],
      "name": "addApprovedStrategy",
      "outputs": [],
      "stateMutability": "nonpayable",
      "type": "function"
    },
    {
      "inputs": [
        {
          "internalType": "address",
          "name": "",
          "type": "address"
        }
      ],
      "name": "approvedStrategies",
      "outputs": [
        {
          "internalType": "bool",
          "name": "",
          "type": "bool"
        }
      ],
      "stateMutability": "view",
      "type": "function"
    },
    {
      "inputs": [
        {
          "internalType": "address",
          "name": "_user",
          "type": "address"
        },
        {
          "internalType": "address",
          "name": "_superToken",
          "type": "address"
        },
        {
          "internalType": "address",
          "name": "_liquidityToken",
          "type": "address"
        }
      ],
      "name": "checkTopUp",
      "outputs": [
        {
          "internalType": "uint256",
          "name": "",
          "type": "uint256"
        }
      ],
      "stateMutability": "view",
      "type": "function"
    },
    {
      "inputs": [
        {
          "internalType": "bytes32",
          "name": "_index",
          "type": "bytes32"
        }
      ],
      "name": "checkTopUpByIndex",
      "outputs": [
        {
          "internalType": "uint256",
          "name": "amount",
          "type": "uint256"
        }
      ],
      "stateMutability": "view",
      "type": "function"
    },
    {
      "inputs": [
        {
          "internalType": "address",
          "name": "_superToken",
          "type": "address"
        },
        {
          "internalType": "address",
          "name": "_strategy",
          "type": "address"
        },
        {
          "internalType": "address",
          "name": "_liquidityToken",
          "type": "address"
        },
        {
          "internalType": "uint64",
          "name": "_expiry",
          "type": "uint64"
        },
        {
          "internalType": "uint64",
          "name": "_lowerLimit",
          "type": "uint64"
        },
        {
          "internalType": "uint64",
          "name": "_upperLimit",
          "type": "uint64"
        }
      ],
      "name": "createTopUp",
      "outputs": [],
      "stateMutability": "nonpayable",
      "type": "function"
    },
    {
      "inputs": [
        {
          "internalType": "bytes32[]",
          "name": "_indices",
          "type": "bytes32[]"
        }
      ],
      "name": "deleteBatch",
      "outputs": [],
      "stateMutability": "nonpayable",
      "type": "function"
    },
    {
      "inputs": [
        {
          "internalType": "address",
          "name": "_user",
          "type": "address"
        },
        {
          "internalType": "address",
          "name": "_superToken",
          "type": "address"
        },
        {
          "internalType": "address",
          "name": "_liquidityToken",
          "type": "address"
        }
      ],
      "name": "deleteTopUp",
      "outputs": [],
      "stateMutability": "nonpayable",
      "type": "function"
    },
    {
      "inputs": [
        {
          "internalType": "bytes32",
          "name": "_index",
          "type": "bytes32"
        }
      ],
      "name": "deleteTopUpByIndex",
      "outputs": [],
      "stateMutability": "nonpayable",
      "type": "function"
    },
    {
      "inputs": [
        {
          "internalType": "address",
          "name": "_user",
          "type": "address"
        },
        {
          "internalType": "address",
          "name": "_superToken",
          "type": "address"
        },
        {
          "internalType": "address",
          "name": "_liquidityToken",
          "type": "address"
        }
      ],
      "name": "getTopUp",
      "outputs": [
        {
          "components": [
            {
              "internalType": "address",
              "name": "user",
              "type": "address"
            },
            {
              "internalType": "contract ISuperToken",
              "name": "superToken",
              "type": "address"
            },
            {
              "internalType": "contract IStrategy",
              "name": "strategy",
              "type": "address"
            },
            {
              "internalType": "address",
              "name": "liquidityToken",
              "type": "address"
            },
            {
              "internalType": "uint64",
              "name": "expiry",
              "type": "uint64"
            },
            {
              "internalType": "uint64",
              "name": "lowerLimit",
              "type": "uint64"
            },
            {
              "internalType": "uint64",
              "name": "upperLimit",
              "type": "uint64"
            }
          ],
          "internalType": "struct StrollManager.TopUp",
          "name": "",
          "type": "tuple"
        }
      ],
      "stateMutability": "view",
      "type": "function"
    },
    {
      "inputs": [
        {
          "internalType": "bytes32",
          "name": "_index",
          "type": "bytes32"
        }
      ],
      "name": "getTopUpByIndex",
      "outputs": [
        {
          "components": [
            {
              "internalType": "address",
              "name": "user",
              "type": "address"
            },
            {
              "internalType": "contract ISuperToken",
              "name": "superToken",
              "type": "address"
            },
            {
              "internalType": "contract IStrategy",
              "name": "strategy",
              "type": "address"
            },
            {
              "internalType": "address",
              "name": "liquidityToken",
              "type": "address"
            },
            {
              "internalType": "uint64",
              "name": "expiry",
              "type": "uint64"
            },
            {
              "internalType": "uint64",
              "name": "lowerLimit",
              "type": "uint64"
            },
            {
              "internalType": "uint64",
              "name": "upperLimit",
              "type": "uint64"
            }
          ],
          "internalType": "struct StrollManager.TopUp",
          "name": "",
          "type": "tuple"
        }
      ],
      "stateMutability": "view",
      "type": "function"
    },
    {
      "inputs": [
        {
          "internalType": "address",
          "name": "_user",
          "type": "address"
        },
        {
          "internalType": "address",
          "name": "_superToken",
          "type": "address"
        },
        {
          "internalType": "address",
          "name": "_liquidityToken",
          "type": "address"
        }
      ],
      "name": "getTopUpIndex",
      "outputs": [
        {
          "internalType": "bytes32",
          "name": "",
          "type": "bytes32"
        }
      ],
      "stateMutability": "pure",
      "type": "function"
    },
    {
      "inputs": [
        {
          "internalType": "address",
          "name": "strategy",
          "type": "address"
        }
      ],
      "name": "isApprovedStrategy",
      "outputs": [
        {
          "internalType": "bool",
          "name": "",
          "type": "bool"
        }
      ],
      "stateMutability": "view",
      "type": "function"
    },
    {
      "inputs": [],
      "name": "minLower",
      "outputs": [
        {
          "internalType": "uint64",
          "name": "",
          "type": "uint64"
        }
      ],
      "stateMutability": "view",
      "type": "function"
    },
    {
      "inputs": [],
      "name": "minUpper",
      "outputs": [
        {
          "internalType": "uint64",
          "name": "",
          "type": "uint64"
        }
      ],
      "stateMutability": "view",
      "type": "function"
    },
    {
      "inputs": [],
      "name": "owner",
      "outputs": [
        {
          "internalType": "address",
          "name": "",
          "type": "address"
        }
      ],
      "stateMutability": "view",
      "type": "function"
    },
    {
      "inputs": [
        {
          "internalType": "address",
          "name": "_user",
          "type": "address"
        },
        {
          "internalType": "address",
          "name": "_superToken",
          "type": "address"
        },
        {
          "internalType": "address",
          "name": "_liquidityToken",
          "type": "address"
        }
      ],
      "name": "performTopUp",
      "outputs": [],
      "stateMutability": "nonpayable",
      "type": "function"
    },
    {
      "inputs": [
        {
          "internalType": "bytes32",
          "name": "_index",
          "type": "bytes32"
        }
      ],
      "name": "performTopUpByIndex",
      "outputs": [],
      "stateMutability": "nonpayable",
      "type": "function"
    },
    {
      "inputs": [
        {
          "internalType": "address",
          "name": "strategy",
          "type": "address"
        }
      ],
      "name": "removeApprovedStrategy",
      "outputs": [],
      "stateMutability": "nonpayable",
      "type": "function"
    },
    {
      "inputs": [],
      "name": "renounceOwnership",
      "outputs": [],
      "stateMutability": "nonpayable",
      "type": "function"
    },
    {
      "inputs": [
        {
          "internalType": "address",
          "name": "newOwner",
          "type": "address"
        }
      ],
      "name": "transferOwnership",
      "outputs": [],
      "stateMutability": "nonpayable",
      "type": "function"
    }
  ],
  "transactionHash": "0x825d61ba20a4658a9bd20c65131a5cbb857b8ae5d624275824aba9103128c2ef",
  "args": [
    "0xF4C5310E51F6079F601a5fb7120bC72a70b96e2A",
    43200,
    172800
  ],
  "numDeployments": 1,
  "solcInputHash": "e44751850d418e58c76a804e39b757d2",
  "bytecode": "0x60a06040523480156200001157600080fd5b5060405162001764380380620017648339810160408190526200003491620000ff565b6200003f3362000092565b60609290921b6001600160601b03191660805260008054600160a01b600160e01b031916600160a01b6001600160401b0393841602179055600180546001600160401b0319169190921617905562000154565b600080546001600160a01b038381166001600160a01b0319831681178455604051919092169283917f8be0079c531659141344cd1fd0a4f28419497f9722a3daafe3b4186f6b6457e09190a35050565b80516001600160401b0381168114620000fa57600080fd5b919050565b60008060006060848603121562000114578283fd5b83516001600160a01b03811681146200012b578384fd5b92506200013b60208501620000e2565b91506200014b60408501620000e2565b90509250925092565b60805160601c6115ea6200017a600039600081816101560152610d6f01526115ea6000f3fe608060405234801561001057600080fd5b50600436106101375760003560e01c80638bc6a941116100b8578063a7052e6b1161007c578063a7052e6b146103ff578063c613aec014610419578063f11665c91461043c578063f2556da91461044f578063f29730cf14610462578063f2fde38b1461047557600080fd5b80638bc6a941146102bc5780638da5cb5b146102cf578063947dd645146102e0578063985d28aa146102f35780639aed5c511461032f57600080fd5b8063715018a6116100ff578063715018a6146101e657806377a80e47146101ee578063854ba6d01461020f57806388882af2146102225780638b80f3511461023557600080fd5b80633aa4e5901461013c5780633db29ed81461015157806347cda691146101955780634e0e623d146101a857806359b830be146101bb575b600080fd5b61014f61014a366004611341565b610488565b005b6101787f000000000000000000000000000000000000000000000000000000000000000081565b6040516001600160a01b0390911681526020015b60405180910390f35b61014f6101a33660046113b4565b6108a7565b61014f6101b63660046112de565b6108f8565b6001546101ce906001600160401b031681565b6040516001600160401b03909116815260200161018c565b61014f6109b5565b6102016101fc3660046112ff565b6109eb565b60405190815260200161018c565b61014f61021d366004611443565b610a03565b610201610230366004611443565b610b77565b6102486102433660046112ff565b610eea565b60405161018c919081516001600160a01b039081168252602080840151821690830152604080840151821690830152606080840151909116908201526080808301516001600160401b039081169183019190915260a08381015182169083015260c092830151169181019190915260e00190565b61014f6102ca3660046112de565b610f31565b6000546001600160a01b0316610178565b61014f6102ee366004611443565b610fc6565b61031f6103013660046112de565b6001600160a01b031660009081526003602052604090205460ff1690565b604051901515815260200161018c565b61024861033d366004611443565b6040805160e081018252600080825260208201819052918101829052606081018290526080810182905260a0810182905260c081019190915250600090815260026020818152604092839020835160e08101855281546001600160a01b039081168252600183015481169382019390935292810154821693830193909352600383015490811660608301526001600160401b03600160a01b9091048116608083015260049092015480831660a0830152600160401b900490911660c082015290565b6000546101ce90600160a01b90046001600160401b031681565b61031f6104273660046112de565b60036020526000908152604090205460ff1681565b61020161044a3660046112ff565b611160565b61014f61045d3660046112ff565b6111ab565b61014f6104703660046112ff565b6111b9565b61014f6104833660046112de565b6111c7565b6001600160a01b038616158015906104a857506001600160a01b03851615155b80156104bc57506001600160a01b03841615155b6104fc5760405162461bcd60e51b815260206004820152600c60248201526b4e756c6c204164647265737360a01b60448201526064015b60405180910390fd5b42836001600160401b0316116105435760405162461bcd60e51b815260206004820152600c60248201526b496e76616c69642074696d6560a01b60448201526064016104f3565b6000546001600160401b03600160a01b909104811690831610156105a05760405162461bcd60e51b8152602060048201526014602482015273125b98dc99585cd9481b1bddd95c881b1a5b5a5d60621b60448201526064016104f3565b6001546001600160401b0390811690821610156105f65760405162461bcd60e51b8152602060048201526014602482015273125b98dc99585cd9481d5c1c195c881b1a5b5a5d60621b60448201526064016104f3565b6001600160a01b03851660009081526003602052604090205460ff166106555760405162461bcd60e51b81526020600482015260146024820152731cdd1c985d1959de481b9bdd08185b1b1bddd95960621b60448201526064016104f3565b604051630fc888cb60e41b81526001600160a01b03878116600483015286169063fc888cb09060240160206040518083038186803b15801561069657600080fd5b505afa1580156106aa573d6000803e3d6000fd5b505050506040513d601f19601f820116820180604052508101906106ce9190611423565b61071a5760405162461bcd60e51b815260206004820152601960248201527f737570657220746f6b656e206e6f7420737570706f727465640000000000000060448201526064016104f3565b6000610727338887611160565b6040805160e081018252338082526001600160a01b038b811660208085018281528d84168688019081528d8516606088019081526001600160401b03808f1660808a019081528e821660a08b019081528e831660c08c0190815260008e81526002988990528d90208c518154908c166001600160a01b03199182161782559751600182018054918d16918a1691909117905595519786018054988b169890971697909717909555915160038401805493518316600160a01b026001600160e01b031990941691909816179190911790955590516004909101805492518516600160401b026001600160801b03199093169190941617179091559251939450909284907f160bcdb242b6b3400162d90511ed5912a4a4f906a00a80e523c1bb10867e428a90610895908c908c908c908c908c906001600160a01b0395861681529390941660208401526001600160401b0391821660408401528116606083015291909116608082015260a00190565b60405180910390a45050505050505050565b60005b818110156108f3576108e18383838181106108d557634e487b7160e01b600052603260045260246000fd5b90506020020135610fc6565b806108eb81611583565b9150506108aa565b505050565b6000546001600160a01b031633146109225760405162461bcd60e51b81526004016104f390611494565b6001600160a01b0381166109695760405162461bcd60e51b815260206004820152600e60248201526d656d70747920737472617465677960901b60448201526064016104f3565b6001600160a01b038116600081815260036020526040808220805460ff19166001179055517f3edff2b723512b7e98f0fb394d84a670f3a40eb2f2c51e9c00c58a3f04e1e4dd9190a250565b6000546001600160a01b031633146109df5760405162461bcd60e51b81526004016104f390611494565b6109e9600061125b565b565b60006109fb610230858585611160565b949350505050565b6000610a0e82610b77565b905060008111610a555760405162461bcd60e51b8152602060048201526012602482015271151bdc155c0818da1958dac819985a5b195960721b60448201526064016104f3565b600082815260026020818152604092839020835160e08101855281546001600160a01b039081168083526001840154821694830185905294830154811682870181905260038401549182166060840152600160a01b9091046001600160401b03908116608084015260049384015480821660a0850152600160401b90041660c08301529451630d32030b60e31b815291820193909352602481019190915260448101849052909190636990185890606401600060405180830381600087803b158015610b2057600080fd5b505af1158015610b34573d6000803e3d6000fd5b50505050827fd9ed57b29272093f04d5d1de3484d5ef3819413dcccbfe2d364ead6ab58d4df683604051610b6a91815260200190565b60405180910390a2505050565b6000818152600260208181526040808420815160e08101835281546001600160a01b03908116808352600184015482169583019590955294820154851692810192909252600381015493841660608301526001600160401b03600160a01b909404841660808301526004015480841660a0830152600160401b900490921660c08301521580610c1357504281608001516001600160401b031611155b80610ca85750606081015181516040808401519051636eb1769f60e11b81526001600160a01b039283166004820152908216602482015291169063dd62ed3e9060440160206040518083038186803b158015610c6e57600080fd5b505afa158015610c82573d6000803e3d6000fd5b505050506040513d601f19601f82011682018060405250810190610ca6919061147c565b155b80610d305750606081015181516040516370a0823160e01b81526001600160a01b0391821660048201529116906370a082319060240160206040518083038186803b158015610cf657600080fd5b505afa158015610d0a573d6000803e3d6000fd5b505050506040513d601f19601f82011682018060405250810190610d2e919061147c565b155b15610d3e5750600092915050565b6020810151815160405163e8e7e2d160e01b81526001600160a01b03928316600482015290821660248201526000917f0000000000000000000000000000000000000000000000000000000000000000169063e8e7e2d19060440160206040518083038186803b158015610db157600080fd5b505afa158015610dc5573d6000803e3d6000fd5b505050506040513d601f19601f82011682018060405250810190610de9919061145b565b9050600081600b0b1215610ee057602082015182516040516370a0823160e01b81526001600160a01b03918216600482015260009291909116906370a082319060240160206040518083038186803b158015610e4457600080fd5b505afa158015610e58573d6000803e3d6000fd5b505050506040513d601f19601f82011682018060405250810190610e7c919061147c565b90506000610e8c836000196114c9565b6bffffffffffffffffffffffff1690508360a001516001600160401b031681610eb59190611564565b8211610edd5760c0840151610ed3906001600160401b031682611564565b9695505050505050565b50505b5060009392505050565b6040805160e081018252600080825260208201819052918101829052606081018290526080810182905260a0810182905260c08101919091526109fb61033d858585611160565b6000546001600160a01b03163314610f5b5760405162461bcd60e51b81526004016104f390611494565b6001600160a01b03811660009081526003602052604090205460ff1615610fc3576001600160a01b038116600081815260036020526040808220805460ff19169055517fcccfdaf06e384e4afcea4acf18f915e4cf10ccbebf3bd41dbdbf360388fa61389190a25b50565b600081815260026020818152604092839020835160e08101855281546001600160a01b03908116808352600184015482169483019490945293820154841694810194909452600381015492831660608501526001600160401b03600160a01b909304831660808501526004015480831660a0850152600160401b900490911660c083015233148061106357504281608001516001600160401b0316105b6110a45760405162461bcd60e51b8152602060048201526012602482015271043616e27742064656c65746520546f7055760741b60448201526064016104f3565b60008281526002602081815260409283902080546001600160a01b031990811682556001820180548216905592810180549093169092556003820180546001600160e01b0319169055600490910180546001600160801b031916905582810151835184840151606086015185516001600160a01b039283168152908216948101949094529182169391169185917f435d6aa02bc57be393afe57c6498e59391018bbf9f6be723d2f94a0e0328ae4b910160405180910390a45050565b604080516001600160a01b0380861660208301528085169282019290925290821660608201526000906080016040516020818303038152906040528051906020012090509392505050565b6108f36102ee848484611160565b6108f361021d848484611160565b6000546001600160a01b031633146111f15760405162461bcd60e51b81526004016104f390611494565b6001600160a01b0381166112565760405162461bcd60e51b815260206004820152602660248201527f4f776e61626c653a206e6577206f776e657220697320746865207a65726f206160448201526564647265737360d01b60648201526084016104f3565b610fc3815b600080546001600160a01b038381166001600160a01b0319831681178455604051919092169283917f8be0079c531659141344cd1fd0a4f28419497f9722a3daafe3b4186f6b6457e09190a35050565b80356001600160a01b03811681146112c257600080fd5b919050565b80356001600160401b03811681146112c257600080fd5b6000602082840312156112ef578081fd5b6112f8826112ab565b9392505050565b600080600060608486031215611313578182fd5b61131c846112ab565b925061132a602085016112ab565b9150611338604085016112ab565b90509250925092565b60008060008060008060c08789031215611359578182fd5b611362876112ab565b9550611370602088016112ab565b945061137e604088016112ab565b935061138c606088016112c7565b925061139a608088016112c7565b91506113a860a088016112c7565b90509295509295509295565b600080602083850312156113c6578182fd5b82356001600160401b03808211156113dc578384fd5b818501915085601f8301126113ef578384fd5b8135818111156113fd578485fd5b8660208260051b8501011115611411578485fd5b60209290920196919550909350505050565b600060208284031215611434578081fd5b815180151581146112f8578182fd5b600060208284031215611454578081fd5b5035919050565b60006020828403121561146c578081fd5b815180600b0b81146112f8578182fd5b60006020828403121561148d578081fd5b5051919050565b6020808252818101527f4f776e61626c653a2063616c6c6572206973206e6f7420746865206f776e6572604082015260600190565b600081600b0b83600b0b6b7fffffffffffffffffffffff838213848413838304851182821616156114fc576114fc61159e565b6b7fffffffffffffffffffffff19868512828116878305871216156115235761152361159e565b87871292508582058712848416161561153e5761153e61159e565b858505871281841616156115545761155461159e565b5050509290910295945050505050565b600081600019048311821515161561157e5761157e61159e565b500290565b60006000198214156115975761159761159e565b5060010190565b634e487b7160e01b600052601160045260246000fdfea264697066735822122041be6d9cb103ab5e6fd1dc989c4de911370f59285b2cc4665f885671fae8b10e64736f6c63430008040033",
  "devdoc": {
    "kind": "dev",
    "methods": {
      "owner()": {
        "details": "Returns the address of the current owner."
      },
      "renounceOwnership()": {
        "details": "Leaves the contract without owner. It will not be possible to call `onlyOwner` functions anymore. Can only be called by the current owner. NOTE: Renouncing ownership will leave the contract without an owner, thereby removing any functionality that is only available to the owner."
      },
      "transferOwnership(address)": {
        "details": "Transfers ownership of the contract to a new account (`newOwner`). Can only be called by the current owner."
      }
    },
    "version": 1
  },
  "userdoc": {
    "kind": "user",
    "methods": {},
    "version": 1
  },
  "storageLayout": {
    "storage": [
      {
        "astId": 7,
        "contract": "contracts/StrollManager.sol:StrollManager",
        "label": "_owner",
        "offset": 0,
        "slot": "0",
        "type": "t_address"
      },
      {
        "astId": 3420,
        "contract": "contracts/StrollManager.sol:StrollManager",
        "label": "minLower",
        "offset": 20,
        "slot": "0",
        "type": "t_uint64"
      },
      {
        "astId": 3422,
        "contract": "contracts/StrollManager.sol:StrollManager",
        "label": "minUpper",
        "offset": 0,
        "slot": "1",
        "type": "t_uint64"
      },
      {
        "astId": 3427,
        "contract": "contracts/StrollManager.sol:StrollManager",
        "label": "topUps",
        "offset": 0,
        "slot": "2",
        "type": "t_mapping(t_bytes32,t_struct(TopUp)3418_storage)"
      },
      {
        "astId": 3431,
        "contract": "contracts/StrollManager.sol:StrollManager",
        "label": "approvedStrategies",
        "offset": 0,
        "slot": "3",
        "type": "t_mapping(t_address,t_bool)"
      }
    ],
    "types": {
      "t_address": {
        "encoding": "inplace",
        "label": "address",
        "numberOfBytes": "20"
      },
      "t_bool": {
        "encoding": "inplace",
        "label": "bool",
        "numberOfBytes": "1"
      },
      "t_bytes32": {
        "encoding": "inplace",
        "label": "bytes32",
        "numberOfBytes": "32"
      },
      "t_contract(IStrategy)4077": {
        "encoding": "inplace",
        "label": "contract IStrategy",
        "numberOfBytes": "20"
      },
      "t_contract(ISuperToken)2443": {
        "encoding": "inplace",
        "label": "contract ISuperToken",
        "numberOfBytes": "20"
      },
      "t_mapping(t_address,t_bool)": {
        "encoding": "mapping",
        "key": "t_address",
        "label": "mapping(address => bool)",
        "numberOfBytes": "32",
        "value": "t_bool"
      },
      "t_mapping(t_bytes32,t_struct(TopUp)3418_storage)": {
        "encoding": "mapping",
        "key": "t_bytes32",
        "label": "mapping(bytes32 => struct StrollManager.TopUp)",
        "numberOfBytes": "32",
        "value": "t_struct(TopUp)3418_storage"
      },
      "t_struct(TopUp)3418_storage": {
        "encoding": "inplace",
        "label": "struct StrollManager.TopUp",
        "members": [
          {
            "astId": 3403,
            "contract": "contracts/StrollManager.sol:StrollManager",
            "label": "user",
            "offset": 0,
            "slot": "0",
            "type": "t_address"
          },
          {
            "astId": 3406,
            "contract": "contracts/StrollManager.sol:StrollManager",
            "label": "superToken",
            "offset": 0,
            "slot": "1",
            "type": "t_contract(ISuperToken)2443"
          },
          {
            "astId": 3409,
            "contract": "contracts/StrollManager.sol:StrollManager",
            "label": "strategy",
            "offset": 0,
            "slot": "2",
            "type": "t_contract(IStrategy)4077"
          },
          {
            "astId": 3411,
            "contract": "contracts/StrollManager.sol:StrollManager",
            "label": "liquidityToken",
            "offset": 0,
            "slot": "3",
            "type": "t_address"
          },
          {
            "astId": 3413,
            "contract": "contracts/StrollManager.sol:StrollManager",
            "label": "expiry",
            "offset": 20,
            "slot": "3",
            "type": "t_uint64"
          },
          {
            "astId": 3415,
            "contract": "contracts/StrollManager.sol:StrollManager",
            "label": "lowerLimit",
            "offset": 0,
            "slot": "4",
            "type": "t_uint64"
          },
          {
            "astId": 3417,
            "contract": "contracts/StrollManager.sol:StrollManager",
            "label": "upperLimit",
            "offset": 8,
            "slot": "4",
            "type": "t_uint64"
          }
        ],
        "numberOfBytes": "160"
      },
      "t_uint64": {
        "encoding": "inplace",
        "label": "uint64",
        "numberOfBytes": "8"
      }
    }
  }
}